:04000000EDEF05F02B
:08000800046ED8CF05F0E0CF33
:1000100006F00001E9CF0CF0EACF07F0E1CF08F0DD
:10002000E2CF09F0D9CF0AF0DACF0BF0F3CF12F01C
:10003000F4CF13F0FACF14F000C00EF001C00FF0AF
:1000400002C010F003C011F0F2AA2AEF00F0F2B4DF
:1000500051EF00F00EC000F00FC001F010C002F030
:1000600011C003F00CC0E9FF07C0EAFF078E08C00B
:10007000E1FF09C0E2FF0AC0D9FF0BC0DAFF12C0DE
:10008000F3FF13C0F4FF14C0FAFF045006C0E0FFF2
:1000900005C0D8FF10000C52656164792E2E2E0A1F
:1000A0000000F2942AEF00F00C52656164792E2E64
:1000B0002E0A0000EA6A510EE96EEF500DE0020EC2
:1000C000016E006A002EFED7012EFBD7970E006E40
:1000D000002EFED7EF2EF3D7120066B002D08C9818
:1000E00001D08C88959866B202D08C9A01D08C8A07
:1000F000959A66B402D08C9C01D08C8C959C66B687
:1001000002D08C9E01D08C8E959E00008D8296929E
:1001100000D000D08D92969212009692969496906E
:100120008D949694635202E18D9401D08D849694BF
:1001300000008D90969000008D9296926438656EC6
:100140000F0E651665C066F0C8DF64500F0B656E54
:10015000666EC3DF1200280E4D6E0C0E4E6E010E41
:100160004F6E060E506E8D9296928D9496948D9051
:1001700096909598959A959C959E96929694969021
:100180000F0E516E97DF010E4C6E4C50030808E3C2
:10019000030E666EA2DF050E516E8CDF4C2AF5D77A
:1001A000020E666E9ADF050E516E84DF4C6A4C506B
:1001B00003080FE3036A4C504D0FE96E000E032055
:1001C000EA6EEFCF51F0636A51C064F0A6DF4C2AAB
:1001D000EED7166A176A57EF06F07150080804E068
:1001E000726E7036722EFDD79488949A94968B9680
:1001F00071C072F070AE8B9A70BE8B8A70368B862F
:10020000013682A8019082B801808B96722EF2D7B7
:10021000120094948B944DC070F0080E716EDDDF67
:1002200094948B841EEF01F094948B8494988B9813
:1002300094968B96948AC00E4D6EEBD7140E516E29
:1002400039DF58EF03F094948B94030E706E080E10
:10025000716EC3DF6DC070F0080E716EBEDF706A24
:10026000080E716EBADF015001C06EF094948B8459
:100270006EC001F01200016603D0026602D007D002
:10028000022A00C0EEFF012EFCD7022EFAD7120080
:1002900094948B94020E706E080E716E9EDF6EC089
:1002A00070F0080E716E99DF6FC070F0080E716EFD
:1002B00094DF94948B841200605203E0400E616ED0
:1002C00001D0616A5F50612661508009626E636A85
:1002D000646E23DF5FC016F060C017F01200556A2D
:1002E000010E5A6E5E6A5D6A5C6A5B6A54C05EF0BB
:1002F00053C05DF052C05CF051C05BF0556E55507C
:1003000004081EE35B5206E15C5204E15D5202E127
:100310005E52D8A455C05AF05E325D325C325B3218
:100320005E325D325C325B325E325D325C325B3259
:100330005E325D325C325B320F0E5E16552ADFD7BD
:100340005E6A5D6A5C6A0F0E5B6E556A5A50555C58
:100350005DE2036A5550560FE96E000E0320EA6E07
:1003600051505B14616E52505C14626E53505D14B8
:10037000636E54505E14646E5550040DF3CF65F0F7
:1003800064C003F063C002F062C001F061C000F01D
:10039000655207E0D8900332023201320032652EF6
:1003A000F9D700C0EFFF036A5550560FE96E000EF3
:1003B0000320EA6EEF5009080BE3036A5550560F0D
:1003C000E96E000E0320EA6E300EEF24EF6E0AD0C5
:1003D000036A5550560FE96E000E0320EA6E370E81
:1003E000EF24EF6E5B365C365D365E365B365C3630
:1003F0005D365E365B365C365D365E365B365C3669
:100400005D365E36F00E5B16552AA0D75A521EE0B6
:1004100016500F0802E3162A08D0166A171E16C0D7
:100420005FF017C060F048DF162A010E5A5E036ABB
:100430005A50560FE96E000E0320EA6EEFCF5FF0C0
:10044000010E636E5FC064F068DEE0D712000F0E2D
:100450006D6EF9DE01C050F0EA6A4E0EE96E01C021
:1004600000F0026A010E016E06DF4D38700B006E5F
:10047000D89000361F0E4E1400104E6E4E860F0E92
:100480006E6E4EC06FF004DF0E0E6D6EDCDE01C0CE
:1004900050F0EA6A4F0EE96E01C000F0026A010EE8
:1004A000016EE9DE4FC000F0003A0030070B506EDD
:1004B000546A536A526A516E12DF020E506EFA0E7F
:1004C000516EF8DD502EFBD793928A724FC000F028
:1004D000003A0030070B4D5CD7E1120018503F0B7B
:1004E000006EC00E4D1400104D6E3F0E4D144D6E3B
:1004F0001A50070B006EF80E4E1400104E6E195075
:10050000070B006ED890003600360036C70E4E142A
:1005100000104E6E4E9C4E8E1B50070B006EF80E58
:100520004F1400104F6E4F9C4F9E2A0E6E6E4DC0A2
:100530006FF0AEDE290E6E6E4EC06FF0A9DE280E93
:100540006E6E4FC06FF0A4DE5CEF03F06C6A6A0E53
:100550006B6E665252E06BC0E9FF6CC0EAFF62C08E
:10056000EFFF6B50D8B46C066B066BC0E9FF6CC034
:10057000EAFF63C0EFFF6B50D8B46C066B066BC02C
:10058000E9FF6CC0EAFF6450030BEF6E6BC0E9FF3C
:100590006CC0EAFF64C000F0003600360036F80E8A
:1005A00000160050E00BEF10EF6E6BC0E9FF6CC05F
:1005B000EAFFEF500809EF6E6B50D8B46C066B067B
:1005C0006BC0E9FF6CC0EAFF64C000F0003A003283
:1005D000070E00160050070BEF6E6BC0E9FF6CC0F2
:1005E000EAFF65C000F0003600360036F80E00164F
:1005F0000050F80BEF10EF6E3FD06BC0E9FF6CC0FE
:10060000EAFFEF6A6B50D8B46C066B066BC0E9FF6B
:100610006CC0EAFFEF6A6B50D8B46C066B066BC017
:10062000E9FF6CC0EAFF62C000F0003A0036E00E5D
:1006300000160050E00BEF6E6B50D8B46C066B06E2
:100640006BC0E9FF6CC0EAFF62C000F0003200320C
:1006500000321F0E001600501F0BEF6E6BC0E9FF3B
:100660006CC0EAFF63C000F0003A0036E00E0016EE
:100670000050E00BEF10EF6E615061066D6E6E6E14
:100680006AC06FF005DE615061066D6E6E6E69C006
:100690006FF0FEDD615061066D6E6E6E68C06FF0CA
:1006A000F7DD61C06EF067C06FF0F2DD1200BCD5FF
:1006B000040E4D6ECCDE12D7EA6A4C0EE96E006A6B
:1006C000026A010E016ED7DD9F0E4C144C6E4C84F5
:1006D000600E6E6E4CC06FF0DBDD700E6E6E4CC047
:1006E0006FF0D6DD230E616E656A646A636A626AC2
:1006F000666A2CDF030E616E656A646A636A626A09
:10070000666A24DF070E616E656A646A636A626AFC
:10071000666A1CDF270E616E656A646A636A626AD4
:10072000666A14DF0B0E616E656A646A636A626AE8
:10073000666A0CDF130E616E656A646A636A626AD8
:10074000666A04DF170E616E656A646A636A626ACC
:10075000666AFCDE1B0E616E656A646A636A626AC1
:10076000666AF4DE4D6A73DE58EF06F04E50070AF3
:1007700009E00B0A0BE0010A13E0070A19E0020A7C
:1007800026E02AD05F6A606A97DD36D0636A010E80
:10079000646EC3DC020E516E8DDC166A176A2CD0B3
:1007A00017C04FF04F1E5F6A4FC060F085DD24D048
:1007B0001650162A0F0806E3010E636E200E646EB3
:1007C000ACDCF6D75F6A17C060F076DD15D0636ADF
:1007D000100E646EA2DC10D016500F0802E3162A29
:1007E00006D0166A171E5F6A17C060F065DD010E3D
:1007F000636E4EC064F091DC08EF04F00900F5521E
:100800000CE0F6CF4CF0F7CF4DF0F5CF4EF0AED771
:100810004CC0F6FF4DC0F7FFF1D76DEF06F0300E7C
:100820006D6E11DD01C061F0EA6A5E0EE96E01C015
:1008300000F0026A010E016E1EDD400E6D6E03DDDA
:1008400001C061F0EA6A5F0EE96E01C000F0026A61
:10085000010E016E10DD500E6D6EF5DC01C061F011
:10086000EA6A600EE96E01C000F0026A010E016ED4
:1008700002DD5EB60AD0360E586E300E596E340E5A
:100880005A6E350E5B6E576A1DD05FB60BD0460EA2
:10089000586E400E596E440E5A6E450E5B6E010E38
:1008A000576E10D060B60BD0560E586E500E596E63
:1008B000540E5A6E550E5B6E020E576E03D0000E2C
:1008C000016E66D059C06DF0BEDC01C061F0EA6A0D
:1008D0005C0EE96E01C000F0026A010E016ECBDC15
:1008E0005350030B006EFC0E5C1400105C6E59C07C
:1008F0006EF05CC06FF0CCDC5AC061F04FC065F0A8
:100900004EC064F04DC063F04CC062F054C066F05D
:100910001DDEEA6A5D0EE96E52C000F0026A010E49
:10092000016EA9DC5D9C55B05D8C5BC06EF05DC056
:100930006FF0AEDC58C056F052505824565C12E2AC
:1009400051C003F050C0E9FF51C0EAFFEFCF61F0A2
:1009500056C06EF061C06FF09BDC502AD8B4512AAB
:10096000562AEAD759C06DF06EDC01C061F0EA6A20
:100970005C0EE96E01C000F0026A010E016E7BDCC4
:100980005C8659C06EF05CC06FF082DC010E016EB7
:1009900095EF06F02C0E6D6E56DC01C04DF0EA6A44
:1009A0004C0EE96E01C000F0026A010E016E63DCBC
:1009B0004CB002D04CA203D0010E016E02D0000E4A
:1009C000016E9AEF06F0676A6B0E666E6050600605
:1009D0006C6E6D6E38DC01C06BF0605060066C6E42
:1009E0006D6E31DC01C06AF0605060066C6E6D6E39
:1009F0002ADC01C069F060C06DF025DC01C068F040
:100A0000656A646A636A626A6152D8B489D066C0F2
:100A1000E9FF67C0EAFFEF50656A646A636A626E65
:100A20006650D8B46706660666C0E9FF67C0EAFF8D
:100A3000EF506E6A6D6A6C6E006A005062126C5004
:100A400063126D5064126E5065126650D8B467061A
:100A5000660666C0E9FF67C0EAFFEF506F6A6E6A1C
:100A60006D6A6C6E030E6C166D6A6E6A6F6A006A50
:100A7000016A00506212015063126C5064126D5092
:100A8000651266C0E9FF67C0EAFFEF506F6A6E6AE1
:100A90006D6A6C6EE00E6C166D6A6E6A6F6A006A43
:100AA0006C34016E6D34026E6E34036E01360236A4
:100AB0000336013602360336013602360336013676
:100AC00002360336E00E0116005062120150631226
:100AD00002506412035065126650D8B46706660669
:100AE00066C0E9FF67C0EAFFEF506D6A6C6E006A8E
:100AF000016A6C34026E6D34036E023603360236C0
:100B000003360236033602360336E00E0216005074
:100B1000621201506312025064120350651253D0E6
:100B2000020E665E000E675A66C0E9FF67C0EAFF04
:100B3000EF506F6A6E6A6D6A6C6EE00E6C166D6ACD
:100B40006E6A6F6A6F30656E6E30646E6D30636EA4
:100B50006C30626E653264326332623265326432A6
:100B600063326232653264326332623265326432D9
:100B700063326232070E65166650D8B467066606A1
:100B800066C0E9FF67C0EAFFEF506F6A6E6A6D6A80
:100B90006C6E6C34006E6D34016E6E34026E6F34A8
:100BA000036E003601360236033600360136023651
:100BB0000336F80E00160050621201506312025004
:100BC00064120350651262C000F063C001F064C09B
:100BD00002F065C003F056EF07F0F86AD09E078E6A
:100BE000166A176A186A010E196E1A6E020E1B6ECB
:100BF0009488949A94968B96C150C00B0F09C16E3D
:100C0000070EB46E1C90AA0E276E400E286E296A3D
:100C10002A6A2B6A2C6A2D6A2E6AAA0E376EBB0EC0
:100C2000386ECC0E396EDD0E3A6EEE0E3B6E3C68C1
:100C30003D6A3E6A3F6A406A060E416E5B0E426E36
:100C40004F0E436E660E446E6D0E456E7D0E466E03
:100C5000070E476E7F0E486E6F0E496E3F0E4A6E4E
:100C60001C920C0E926E100E936E946E000E956E8A
:100C7000926A896A936A8A6A946A8B6A956A8C6AAC
:100C800096909692969496968D6A93928A92939263
:100C90008A9293928A82C80E516E5AEC00F0939217
:100CA0008A92C80E516E5AEC00F0ABEF00F0FFD400
:100CB00093928A82C80E516E5AEC00F093928A92F7
:100CC000C80E516E5AEC00F0020E4D6E27EC02F089
:100CD000A80EF66E000EF76E91D5020E4C6EFA0E4F
:100CE000516E5AEC00F04C2EFAD7090E4B6E840E62
:100CF000D56EF28AC00EF212040E4C6EFA0E516ED0
:100D00005AEC00F04C2EFAD793948A74282A4F6A32
:100D10004E6A4D6AC80E4C6E516A270E506E020E16
:100D2000526E536A546A556A7AD5640E516E5AEC03
:100D300000F030D60152D8B40CD14D6A2F0E4C6E53
:100D40002C0E6D6E23EC01F001C058F0EA6A570ECC
:100D5000E96E01C000F0026A010E016E3BEC01F089
:100D6000600E6D6E23EC01F001C058F0EA6A4F0E80
:100D7000E96E01C000F0026A010E016E3BEC01F069
:100D8000700E6D6E23EC01F001C058F0EA6A500E4F
:100D9000E96E01C000F0026A010E016E3BEC01F049
:100DA0002D0E6D6E23EC01F001C058F0EA6A510E71
:100DB000E96E01C000F0026A010E016E3BEC01F029
:100DC00057A01FD01D981D9051BC1D80519C2D0E09
:100DD0006E6E51C06FF048EC01F04FA40BD0000EC6
:100DE0004FB0010E070B006ED8900036F10E1D14A7
:100DF00000101D6E650E526E620E546E660E566EBB
:100E000021D057A21CD01D881D9051BE1D80519E1F
:100E10002D0E6E6E51C06FF048EC01F05050070B74
:100E2000070B006ED8900036F10E1D1400101D6ED9
:100E3000750E526E720E546E760E566E03D0000E04
:100E4000016E6AD052C06DF023EC01F001C058F081
:100E5000EA6A530EE96E01C000F0026A010E016EEB
:100E60003BEC01F053500F0B266E1D9A53BC1D8AAC
:100E700054C06DF023EC01F001C058F0EA6A550E41
:100E8000E96E01C000F0026A010E016E3BEC01F058
:100E90001D9C55B61D8C020E5424586E000E1DBCB0
:100EA000010E596E58C060F0616E8DD503C021F0FF
:100EB00002C020F001C01FF000C01EF056C04EF06E
:100EC000265056244E5C15E24DC003F04CC058F03D
:100ED0004DC059F04EC06DF023EC01F059C0EAFF4F
:100EE00058C0E9FF01C0EFFF4C2AD8B44D2A4E2A62
:100EF000E7D71D9E57BE1D8E57AE01D0579E1DA829
:100F000002D0579201D057902C0E6E6E57C06FF0E2
:100F100048EC01F0010E016E01521BE01E50C808A2
:100F200018E11F5216E1205214E1215212E12F5014
:100F3000AA0803E193928A8205D02F50BB0802E1F0
:100F400093928A92546A536A526A30C051F06FEC9D
:060F500001F0D2D60300FF
:020000040030CA
:0E00000000C2180E008781000FC00FE00F40F5
:00000001FF
;PIC18F4520
;CRC=F929  CREATED="21-set-20 16:00"
