:060000008031612A0000BE
:08000800830180312000200873
:10001000A4002108A5002208A6002308A7000B1EA3
:1000200013288B183C28850191308400001C1A2865
:10003000111823282408A0002508A1002608A200E2
:100040002708A300090096010B309700B8309600EE
:10005000B60B2E28B70A1030B600391437083C3CCE
:10006000031D3528B701B80AB91438083C3C0319F8
:10007000B801111080311A28B9158B1080311A2857
:10008000203085001C3084000008031955280130F9
:10009000A100A001A00B4A28A10B49284A30A000CA
:1000A000A00B50285328800B472808004C08083C18
:1000B00003195E28CD00CB0DCD0B5B2821008E14DB
:1000C0000E110E1022000E1020004C08CD00CB1B8C
:1000D0006C2822000E112000CB1F712822000E1563
:1000E0002000CB0D22000E142000A10D8E1C21102B
:1000F0008E18211422000E102000CD0B6728080056
:1001000021008E1122008E1103302000CB00083018
:10011000CC0056203F08CB000830CC005620CB0145
:100120000830CC0056202108C00021008E1122008A
:100130008E1520004008A100080021080319A428FA
:1001400020081A00A10BA028080021008E1122000F
:100150008E1102302000CB000830CC005620490818
:10016000CB000830CC0056204A08CB000830CC0029
:10017000562021008E1122008E15200008000F301D
:10018000BF0080202108BF00203085001D30840082
:100190002108A0000130A1009D203C0E7039A00074
:1001A000A0351F303D052004BD00BD150F30C9002E
:1001B0003D08CA00A5200E30BF0080202108BF00E6
:1001C000203085001E3084002108A0000130A100ED
:1001D0009D203E08A000A00E203607393C02031DDA
:1001E000DB2808002030C7002530C600C1080319ED
:1001F0004B2946088400470885003D0880004608D2
:100200000319C703C60346088400470885003E0853
:10021000800046080319C703C60346088400470840
:1002200085003F08033980004608840047088500A0
:100230003F08A000A00DA00DA00DF830A0052008DB
:10024000E039000480004608840047088500000863
:100250000838800046080319C703C603460884000F
:10026000470885003F08A000A00EA00C0730A0059D
:1002700020080739800046088400470885004008A8
:10028000A000A00DA00DA00DF830A0052008F839A1
:10029000000480008A294608840047088500800100
:1002A00046080319C703C6034608840047088500AB
:1002B000800146080319C703C6034608840047089F
:1002C00085003D08A000A00EA00DE030A00520088C
:1002D000E039800046080319C703C60346088400B6
:1002E000470885003D08A000A00CA00CA00C1F3002
:1002F000A00520081F3980004608840047088500B3
:100300003E08A000A00EA00DE030A0052008E039B6
:10031000000480003C08BC03C800C9004508CA00AE
:10032000A5203C08BC03C800C9004408CA00A52099
:100330003C08BC03C800C9004308CA00A5203C080B
:10034000C9004208CA00A520080021008E11220021
:100350008E1521008E1022008E1021000E1022001A
:100360000E1021000E15C0302000BC0021008E119F
:1003700022008E1120003C08CB000830CC00562013
:1003800021008E1122008E1514302000BC00402068
:100390000430BC00BF2028083F39A000C0303C0515
:1003A0002004BC003F303C05BC002A080739A000EF
:1003B000F8303D052004BD0029080739A000A0350C
:1003C000A00DA00DC7303D052004BD003D13BD1795
:1003D0002B080739A000F8303E052004BE003E136C
:1003E000BE132A30C9003C08CA00A5202930C90024
:1003F0003D08CA00A5202830C9003E08CA00A52033
:10040000203085001B308400A0010130A1009D2018
:100410009F303B05BB003B156030C9003B08CA005C
:10042000A5207030C9003B08CA00A5202330BC00BD
:10043000C001BF01BE01BD01C101F2200330BC00FB
:10044000C001BF01BE01BD01C101F2200730BC00E7
:10045000C001BF01BE01BD01C101F2202730BC00B7
:10046000C001BF01BE01BD01C101F2200B30BC00C3
:10047000C001BF01BE01BD01C101F2201330BC00AB
:10048000C001BF01BE01BD01C101F2201730BC0097
:10049000C001BF01BE01BD01C101F2201B30BC0083
:1004A000C001BF01BE01BD01C101F220BC01BF20DE
:1004B0008031A72A2B30C9003B08CA00A520803113
:1004C000042B6A3021009900220000142000A801AA
:1004D0000130A900AA000230AB0021008E140E11D9
:1004E0000E1022000E102000AF01AE01AD01AC01D4
:1004F000B301B201B101B001B501B401B601B70158
:10050000B8013910B9103911B9113912B9123913AA
:10051000B913BA0123008C018E01220092019101CE
:10052000940193010C3065000230670021008C12A9
:1005300022008C1221000C1222000C1221008C12BD
:1005400022008C16C8302000BC004020A5292100C4
:100550008C1222008C12C8302000BC0040200430D5
:10056000BC00BF202330BC00C001BF010730BE006B
:100570001F30BD00C101F2200330BC00C001BF012B
:100580000730BE001F30BD00C101F2200730BC00A3
:10059000C001BF01BE001F30BD00C101F2202730E5
:1005A000BC00C001BF010730BE001F30BD00C1014B
:1005B000F2200B30BC00C001BF010730BE001F306D
:1005C000BD00C101F2201330BC00C001BF010730E3
:1005D000BE001F30BD00C101F2201730BC00C001B9
:1005E000BF010730BE001F30BD00C101F2201B302B
:1005F000BC00C001BF010730BE001F30BD00C101FB
:10060000F2200330BB005A2ABC01BF2021008C120B
:1006100022008C16C8302000BC0040200B138B1326
:100620008B1B0F2B0B162100151322009D1135304B
:1006300020009800990121001114200096019701D3
:1006400096011030B600C0308B0421008C122200BD
:100650008C12C8302000BC004020391C362B3910C9
:1006600021008C12203022008C0620002D2B6300EC
:020000040001F9
:10E000000000000000000000000000000000000010
:04E01000000000000C
:02E00C00000012
:04000E008439FF1E14
:00000001FF
;PIC16F1823
;CRC=8250  CREATED="23-jul-20 16:28"
