:060000008031D52B000049
:08000800830180312000200873
:10001000A4002108A5002208A6002308A7000B1EA3
:1000200013288B183C28850191308400001C1A2865
:10003000111823282408A0002508A1002608A200E2
:100040002708A300090096010B309700B8309600EE
:10005000B60B2E28B70A1030B600391437083C3CCE
:10006000031D3528B701B80AB91438083C3C0319F8
:10007000B801111080311A28B9158B1080311A2857
:1000800020308500283084000008031955280130ED
:10009000A100A001A00B4A28A10B49284A30A000CA
:1000A000A00B50285328800B472808006708083CFD
:1000B00003195E28E800E60DE80B5B2821008E148A
:1000C0000E110E1022000E1020006708E800E61B3B
:1000D0006C2822000E112000E61F712822000E1548
:1000E0002000E60D22000E142000A10D8E1C211010
:1000F0008E18211422000E102000E80B672808003B
:1001000021008E1122008E1103302000E6000830FD
:10011000E70056205708E6000830E7005620E601C1
:100120000830E70056202108D80021008E11220057
:100130008E1520005808A100080021080319A428E2
:1001400020081A00A10BA028080021008E1122000F
:100150008E1102302000E6000830E70056206408C7
:10016000E6000830E70056206508E6000830E700A2
:10017000562021008E1122008E15200008000F301D
:10018000D70080202108C60020308500243084005C
:100190002108A0000130A1009D20430E7039A0006D
:1001A000A0351F3044052004C400C4150F30E400FE
:1001B0004408E500A5200E30D70080202108C600A5
:1001C00020308500253084002108A0000130A100E6
:1001D0009D204508A000A00E203607394302031DCC
:1001E000DB2808002030E2004030E100DC08031981
:1001F0004B29610884006208850058088000610866
:100200000319E203E10361088400620885005908CC
:10021000800061080319E203E103610884006208B9
:1002200085005A080339800061088400620885004F
:100230005A08A000A00DA00DA00DF830A0052008C0
:10024000E03900048000610884006208850000082D
:100250000838800061080319E203E10361088400A3
:10026000620885005A08A000A00EA00C0730A00567
:1002700020080739800061088400620885005B0857
:10028000A000A00DA00DA00DF830A0052008F839A1
:10029000000480008A2961088400620885008001CA
:1002A00061080319E203E103610884006208850024
:1002B000800161080319E203E10361088400620818
:1002C00085005808A000A00EA00DE030A005200871
:1002D000E039800061080319E203E103610884004A
:1002E000620885005808A000A00CA00CA00C1F30CC
:1002F000A00520081F39800061088400620885007D
:100300005908A000A00EA00DE030A0052008E0399B
:10031000000480005708D703E300E4006008E5000C
:10032000A5205708D703E300E4005F08E500A520F7
:100330005708D703E300E4005E08E500A52057084E
:10034000E4005D08E500A520080021008E112200D0
:100350008E1521008E1022008E1021000E1022001A
:100360000E1021000E15C0302000C30021008E1198
:1003700022008E1120004308E6000830E7005620D6
:1003800021008E1122008E1514302000C80040205C
:100390000430C300BF2028083F39A000C030430507
:1003A0002004C3003F304305C3002A080739A000DA
:1003B000F83044052004C40029080739A000A035FE
:1003C000A00DA00DC73044052004C4004413C41779
:1003D0002B080739A000F83045052004C500451357
:1003E000C5132A30E4004308E500A5202930E400C5
:1003F0004408E500A5202830E4004508E500A520D4
:100400002030850022308400A0010130A1009D2011
:100410009F304205C20042156030E4004208E5000A
:10042000A5207030E4004208E500A5202330D70065
:10043000DB01DA01D901D801DC01F2200330D70059
:10044000DB01DA01D901D801DC01F2200730D70045
:10045000DB01DA01D901D801DC01F2202730D70015
:10046000DB01DA01D901D801DC01F2200B30D70021
:10047000DB01DA01D901D801DC01F2201330D70009
:10048000DB01DA01D901D801DC01F2201730D700F5
:10049000DB01DA01D901D801DC01F2201B30D700E1
:1004A000DB01DA01D901D801DC01F220C301BF2050
:1004B00080313B2C2B30E4004208E500A520803140
:1004C000412CC4012C30D70080202108C200C20872
:1004D0000319782A0130C300C3080319782A420897
:1004E00043050319752A4308C4000310C30D6C2A81
:1004F0004408013A0319922A033A0319932A063A47
:100500000319942A0C3A0319952A183A0319962AC2
:10051000303A0319972A603A0319982AC03A031906
:10052000992ABD2ABD2ABD2ABD2ABD2ABD2ABD2AB7
:10053000BD2A2C30C5004408C600C70121008E1119
:1005400022008E1105302000E6000830E70056201A
:100550004508E6000830E70056204608E600083067
:10056000E70056204708E6000830E7005620210043
:100570008E1122008E152000BD2A4408FF3AC205C4
:100580004208A10080315E2C47080739A000470CC3
:10059000A100A10CA10C1F30A1052108490784006E
:1005A00000304A3D8500A101A10AA00AD82AA10D68
:1005B000A00BD72AC8080319E02A21088004E32ADF
:1005C000A109210880050800C601C60142084602AB
:1005D0000318182B4508C7000130C800CA00C9011C
:1005E000C4224508C700C801CA018030C900C4221E
:1005F0001430C80040204508C700C8010130CA00B7
:10060000C901C4224508C700C801CA018030C90019
:10061000C4224408C700C70AC7030319132BFF30BD
:10062000C80040200C2B4308C8004020C60AE62A18
:1006300008003030D70080202108D7002030850006
:10064000343084002108A0000130A1009D204030FA
:10065000D70080202108D700203085003530840065
:100660002108A0000130A1009D205030D70080203B
:100670002108D70020308500363084002108A000F2
:100680000130A1009D20D4194F2B3630CE003030E0
:10069000CF003430D0003530D100CD016C2BD519CE
:1006A0005C2B4630CE004030CF004430D000453087
:1006B000D1000130CD006C2BD619692B5630CE00FD
:1006C0005030CF005430D0005530D1000230CD0032
:1006D0006C2B0030A100D32B4F08D70080202108BD
:1006E000D70020308500323084002108A00001307E
:1006F000A1009D2049080339A000FC3052052004C8
:10070000D2004F08E4005208E500A5205008D700A9
:100710004508DB004408DA004308D9004208D80045
:100720004A08DC00F220203085003330840048087D
:10073000A0000130A1009D2053134B1853175108FE
:10074000E4005308E500A5204E08CC0048084E07F9
:100750004C020318BD2B4708A30046088400470835
:1007600085000008D7004C08E4005708E500A520E4
:10077000C60A0319C70ACC0AA62B4F08D700802047
:100780002108D70020308500323084002108A000E5
:100790000130A1009D20D2154F08E4005208E50069
:1007A000A5200130A10080318E2C6A3021009900F3
:1007B0002000A8010130A900AA000230AB002100EE
:1007C0008E140E110E1022000E102000AF01AE018B
:1007D000AD01AC01B301B201B101B001B501B40189
:1007E000B601B701B8013910B9103911B911391270
:1007F000B9123913B91323008C018E012200920122
:10080000910194019301CC302000BA00DD30BB008F
:10081000BC01BD01BE01BF01C001C1010C306500BA
:100820000230670021008E1222008E1221000C126D
:1008300022000C1221008E1222008E16C8302000D9
:10084000C800402021008E1222008E12C8302000E5
:10085000C800402021008E1222008E16C8302000D1
:10086000C800402021008E1222008E12C8302000C5
:10087000C8004020A5290430C300BF208030C2003A
:100880005A2AC301BF200B138B138B1B442C0B164E
:100890002100151322009D110530200098009901B8
:1008A0002100111420009601970196011030B60026
:1008B000C0308B04B91D6C2CB911612A21008C1039
:1008C00022008C1002302000C200C4013230C3006C
:1008D0007530C500E422712C21008C1022008C148C
:1008E000200021000C1420000C18792CBB30BA0019
:1008F0007B2CAA30BA00391C982C3910C501C401D0
:100900000730C3001F30C2002030C7001A30C600B5
:100910000230C800C901CA01CB01192B0A30C80036
:1009200040200130C200C401C3007530C500E4227C
:040930005A2C6300DA
:020000040001F9
:10E000000000000000000000000000000000000010
:04E01000000000000C
:02E00C00000012
:04000E008439FF1E14
:00000001FF
;PIC16F1823
;CRC=4242  CREATED="08-jun-20 14:41"
