:0600000080317B2D0000A1
:08000800830180312000200873
:10001000A4002108A5002208A6002308A7000B1EA3
:1000200013288B183C28850191308400001C1A2865
:10003000111823282408A0002508A1002608A200E2
:100040002708A300090096010B309700B8309600EE
:10005000B60B2E28B70A1030B600391437083C3CCE
:10006000031D3528B701B80AB91438083C3C0319F8
:10007000B801111080311A28B9158B1080311A2857
:100080002030850084000008031954280130A100A5
:10009000A001A00B4928A10B48284A30A000A00BC2
:1000A0004F285228800B4628080021002808083CC9
:1000B00003195E28A900A70DA90B5B288E140E1149
:1000C0000E1022000E1021002808A900A71B6B2883
:1000D00022000E112100A71F702822000E152100FA
:1000E000A70D22000E142000A10D8E1C21108E18C9
:1000F000211422000E102100A90B66282000080000
:1001000021008E1122008E1103302100A70008303B
:10011000A8002000552021002508A7000830A800CD
:10012000200055202100A7010830A80020005520FC
:1001300021082100A6008E1122008E15210026081C
:100140002000A100080021080319AA2820081A008D
:10015000A10BA628080021008E1122008E1102306A
:100160002100A7000830A8002000552066082100C3
:10017000A7000830A8002000552067082100A7002C
:100180000830A8002000552021008E1122008E1575
:10019000200008000F302100A50020008020210849
:1001A000BE00203085001C3084002108A0000130F2
:1001B000A100A3203B0E7039A000A0351F303C05E4
:1001C0002004BC00BC150F30E6003C08E700AB2063
:1001D0000E302100A500200080202108BE00203024
:1001E00085001D3084002108A0000130A100A3205B
:1001F0003D08A000A00E203607393B02031DE82869
:1002000008002030C6002430C500C00803195A2950
:1002100045088400460885003C088000450803190D
:10022000C603C50345088400460885003D088000D4
:1002300045080319C603C503450884004608850020
:100240003E080339800045088400460885003E08C2
:10025000A000A00DA00DA00DF830A0052008E039E9
:10026000000480004508840046088500000808381E
:10027000800045080319C603C503450884004608E5
:1002800085003E08A000A00EA00C0730A0052008A5
:100290000739800045088400460885003F08A00013
:1002A000A00DA00DA00DF830A0052008F83900041D
:1002B000800099294508840046088500800145088A
:1002C0000319C603C503450884004608850080015C
:1002D00045080319C603C503450884004608850080
:1002E0003C08A000A00EA00DE030A0052008E039D9
:1002F000800045080319C603C50345088400460865
:1003000085003C08A000A00CA00CA00C1F30A0058C
:1003100020081F39800045088400460885003D08F4
:10032000A000A00EA00DE030A0052008E0390004D8
:1003300080003B08BB03C700E6004408E700AB2091
:100340003B08BB03C700E6004308E700AB203B08BF
:10035000BB03C700E6004208E700AB203B08E6000D
:100360004108E700AB20080021008E1122008E1505
:1003700021008E1022008E1021000E1022000E107F
:1003800021000E15C0302000BB0021008E1122007C
:100390008E1120003B082100A7000830A800200093
:1003A000552021008E1122008E1514302000C0002F
:1003B00040200430BB00CA2028083F39A000C030CC
:1003C0003B052004BB003F303B05BB002A08073932
:1003D000A000F8303C052004BC0029080739A00023
:1003E000A035A00DA00DC7303C052004BC003C1377
:1003F000BC172B080739A000F8303D052004BD00CC
:100400003D13BD132A30E6003B08E700AB2029303E
:10041000E6003C08E700AB202830E6003D08E70096
:10042000AB20203085001A308400A0010130A100EB
:10043000A3209F303A05BA003A156030E6003A082A
:10044000E700AB207030E6003A08E700AB2023302D
:10045000BB00BF01BE01BD01BC01C00101210330D1
:10046000BB00BF01BE01BD01BC01C00101210730BD
:10047000BB00BF01BE01BD01BC01C001012127308D
:10048000BB00BF01BE01BD01BC01C00101210B3099
:10049000BB00BF01BE01BD01BC01C0010121133081
:1004A000BB00BF01BE01BD01BC01C001012117306D
:1004B000BB00BF01BE01BD01BC01C00101211B3059
:1004C000BB00BF01BE01BD01BC01C0010121BB01D8
:1004D000CA208031C02D2B30E6003A08E700AB205F
:1004E00080311D2EBC012C302100A5002000802071
:1004F0002108BA00BA0803198B2A0130BB00BB08D7
:1005000003198B2A3A083B050319882A3B08BC00CB
:100510000310BB0D7F2A3C08013A0319A52A033AB0
:100520000319A72A063A0319A92A0C3A0319AA2A79
:10053000183A0319AB2A303A0319AC2A603A031966
:10054000AD2AC03A0319AE2AAF2AB916AF2AB91696
:10055000AF2AAF2AAF2AAF2AAF2AAF2AAF2A3C0868
:10056000FF3ABA053A08A10080314A2EAA30C400E9
:10057000BB30C500C601C701C801C901CA01CB0112
:10058000AA30CC00BB30CD00CE01CF01D001D101CB
:10059000D201D301B9122030D5002C30D4002C3038
:1005A0002100A500200080202108E00020308500E7
:1005B0003F3084002108A0000130A100A32060305A
:1005C0002100A500200080202108E00020308500C7
:1005D000373084002108A0000130A100A320703032
:1005E0002100A500200080202108E00020308500A7
:1005F000383084002108A0000130A100A3202D3054
:100600002100A500200080202108E0002030850086
:10061000393084002108A0000130A100A3205F1C14
:100620002E2B3A123A10591B3A1459132D30E6006A
:100630005908E700AB20571D272B00305718013011
:100640000739A000A035F1303A052004BA00653022
:10065000DA006230DC006630DE004D2BDF1C4A2BF6
:100660003A163A10D91B3A14D9132D30E60059081E
:10067000E700AB20580807390739A000A035F13052
:100680003A052004BA007530DA007230DC007630AA
:10069000DE004D2B0030A100052D5A082100A500D9
:1006A000200080202108E000203085003B308400BD
:1006B0002108A0000130A100A3205B080F39BF0072
:1006C000BA125B1BBA165C082100A500200080202E
:1006D0002108E000203085003D3084002108A00082
:1006E0000130A100A3203A13DD193A1702305C074C
:1006F000E00000303A1B0130E1006008E8006108CA
:10070000E9002030EF005330EE006808E8032100D4
:10071000A400A5002000802021082100A3002000C3
:100720006808E8032100A400A5002000802021081B
:100730002100A20020006808E8032100A400A50011
:100740002000802021082100A1002000680821004D
:10075000A5002000802021082100A0002000ED013C
:10076000EC01EB01EA01E9080319642C6E0884002E
:100770006F0885000008ED01EC01EB01EA006E084E
:100780000319EF03EE036E0884006F08850000086C
:100790002100A701A601A501A40026082000A300AE
:1007A000210025082000A200210024082000A1002B
:1007B000A0012008EA042108EB042208EC04230825
:1007C000ED046E080319EF03EE036E0884006F0852
:1007D000850000082100A701A601A501A40003309F
:1007E000A405A501A601A70125082000A30021005A
:1007F00024082000A200A001A1012008EA04210889
:10080000EB042208EC042308ED046E0884006F0852
:10081000850000082100A701A601A501A400E03081
:10082000A405A501A601A7012000A0012100240D17
:100830002000A1002100250D2000A2002100260D8E
:100840002000A300A10DA20DA30DA10DA20DA30DCB
:10085000A10DA20DA30DA10DA20DA30DE030A105C8
:100860002008EA042108EB042208EC042308ED0424
:100870006E080319EF03EE036E0884006F0885000D
:1008800000082100A701A601A501A4002000A001E5
:10089000A1012100240D2000A2002100250D20002F
:1008A000A300A20DA30DA20DA30DA20DA30DA20DD9
:1008B000A30DE030A2052008EA042108EB04220879
:1008C000EC042308ED04C72C0230EE020030EF3BAD
:1008D0006E0884006F08850000082100A701A601AA
:1008E000A501A400E030A405A501A601A701270CDD
:1008F0002000ED002100260C2000EC002100250C3A
:100900002000EB002100240C2000EA00ED0CEC0C90
:10091000EB0CEA0CED0CEC0CEB0CEA0CED0CEC0C1B
:10092000EB0CEA0CED0CEC0CEB0CEA0C0730ED05D3
:100930006E080319EF03EE036E0884006F0885004C
:1009400000082100A701A601A501A400240D200094
:10095000A0002100250D2000A1002100260D20006F
:10096000A2002100270D2000A300A00DA10DA20DC3
:10097000A30DA00DA10DA20DA30DF830A005200818
:10098000EA042108EB042208EC042308ED046A08B9
:10099000A0006B08A1006C08A2006D08A30023084A
:1009A000C3002208C2002108C1002008C0005E0860
:1009B000D6003F085E0756020318F42C5508A30022
:1009C0005408E0005508E10056082100A500200069
:1009D0008020610885006008840021088000D40A16
:1009E0000319D50AD60AD92CBA13DF1BBA17DF1B95
:1009F000DF133A1EFD2CDF10FE2C5F102C30E600BA
:100A00005F08E700AB200130A100A1080319232DE6
:100A10004C08AA3C031D162D21000C1222000C16B6
:100A200021008E1222008E12222D20004C08BB3C89
:100A3000031D232D21000C1222000C1221008E1206
:100A400022008E16200080314C2E3F080739A0006E
:100A50003F0CA100A10CA10C1F30A10521084107EA
:100A600084000030423D8500A101A10AA00A392D71
:100A7000A10DA00B382DC0080319412D21088004B9
:100A8000442DA109210880050800BE01BE013A08D5
:100A90003E020318792D3D08BF000130C000C2009E
:100AA000C10125253D08BF00C001C2018030C10041
:100AB00025251430C00040203D08BF00C001013092
:100AC000C200C10125253D08BF00C001C201803020
:100AD000C10025253C08BF00BF0ABF030319742DC0
:100AE000FF30C00040206D2D3B08C0004020BE0AF2
:100AF000472D8031572E6A302100990022000014C2
:100B00002000A8010130A900AA000230AB0021009A
:100B10008E140E110E1022000E102000AF01AE0137
:100B2000AD01AC01B301B201B101B001B501B40135
:100B3000B601B701B8013910B9103911B91139121C
:100B4000B9123913B91323008C018E0122009201CE
:100B50009101940193010C3065000230670021007F
:100B60008C1222008C1221000C1222000C12210087
:100B70008C1222008C16C8302000C0004020B429FE
:100B800021008C1222008C12C8302000C0004020AE
:100B90000430BB00CA202330BB00BF01BE010730B8
:100BA000BD001F30BC00C00101210330BB00BF01EC
:100BB000BE010730BD001F30BC00C001012107305D
:100BC000BB00BF01BE01BD001F30BC00C001012140
:100BD0002730BB00BF01BE010730BD001F30BC0085
:100BE000C00101210B30BB00BF01BE010730BD00B9
:100BF0001F30BC00C00101211330BB00BF01BE018A
:100C00000730BD001F30BC00C00101211730BB0000
:100C1000BF01BE010730BD001F30BC00C001012173
:100C20001B30BB00BF01BE010730BD001F30BC0040
:100C3000C00101210330BA006B2ABB01CA20210088
:100C40008C1222008C16C8302000C00040200B13EC
:100C50008B138B1B282E0B162100151322009D11C0
:100C60000530200098009901210011142000960100
:100C7000970196011030B600C0308B0421008C1211
:100C800022008C12C8302000C0004020B91D4A2E1E
:100C9000B911722AB91AB62A391C572E39100130E7
:100CA000BA00BC00F430BB006530BD00452D462EB7
:020CB0006300DF
:020000040001F9
:10E000000000000000000000000000000000000010
:04E01000000000000C
:02E00C00000012
:04000E008439FF1E14
:00000001FF
;PIC16F1823
;CRC=89A7  CREATED="22-jul-20 16:17"
