:060000008031802D00009C
:08000800830180312000200873
:10001000A4002108A5002208A6002308A7000B1EA3
:1000200013288B183C28850191308400001C1A2865
:10003000111823282408A0002508A1002608A200E2
:100040002708A300090096010B309700B8309600EE
:10005000B60B2E28B70A1030B600391437083C3CCE
:10006000031D3528B701B80AB91438083C3C0319F8
:10007000B801111080311A28B9158B1080311A2857
:10008000203085003A3084000008031955280130DB
:10009000A100A001A00B4A28A10B49284A30A000CA
:1000A000A00B50285328800B47280800210028085F
:1000B000083C03195F28A900A70DA90B5C288E1422
:1000C0000E110E1022000E1021002808A900A71BF7
:1000D0006C2822000E112100A71F712822000E1586
:1000E0002100A70D22000E142000A10D8E1C21104E
:1000F0008E18211422000E102100A90B6728200061
:10010000080021008E1122008E1103302100A7006B
:100110000830A8002000562021002508A70008303C
:10012000A800200056202100A7010830A8002000C8
:10013000562021082100A6008E1122008E152100D4
:1001400026082000A100080021080319AB28200878
:100150001A00A10BA728080021008E1122008E1181
:1001600002302100A7000830A800200056206608B1
:100170002100A7000830A8002000562067082100B1
:10018000A7000830A8002000562021008E11220070
:100190008E15200008000F302100A50020008120CE
:1001A0002108BE00203085001C3084002108A000FA
:1001B0000130A100A4203B0E7039A000A0351F30F3
:1001C0003C052004BC00BC150F30E6003C08E700ED
:1001D000AC200E302100A500200081202108BE00A7
:1001E000203085001D3084002108A0000130A100CE
:1001F000A4203D08A000A00E203607393B02031DB5
:10020000E92808002030C6002430C500C0080319C2
:100210005B2945088400460885003C0880004508A5
:100220000319C603C50345088400460885003D0838
:10023000800045080319C603C50345088400460825
:1002400085003E0803398000450884004608850083
:100250003E08A000A00DA00DA00DF830A0052008BC
:10026000E039000480004508840046088500000845
:100270000838800045080319C603C50345088400F3
:10028000460885003E08A000A00EA00C0730A0057F
:1002900020080739800045088400460885003F088B
:1002A000A000A00DA00DA00DF830A0052008F83981
:1002B000000480009A2945088400460885008001D2
:1002C00045080319C603C503450884004608850090
:1002D000800145080319C603C50345088400460884
:1002E00085003C08A000A00EA00DE030A00520086D
:1002F000E039800045080319C603C503450884009A
:10030000460885003C08A000A00CA00CA00C1F30E3
:10031000A00520081F398000450884004608850094
:100320003D08A000A00EA00DE030A0052008E03997
:10033000000480003B08BB03C700E6004408E70058
:10034000AC203B08BB03C700E6004308E700AC2035
:100350003B08BB03C700E6004208E700AC203B08AF
:10036000E6004108E700AC20080021008E112200C1
:100370008E1521008E1022008E1021000E102200FA
:100380000E1021000E15C0302000BB0021008E1180
:1003900022008E1120003B082100A7000830A80091
:1003A0002000562021008E1122008E1514302000CE
:1003B000DA0040200430BB00CB2028083F39A000E1
:1003C000C0303B052004BB003F303B05BB002A0882
:1003D0000739A000F8303C052004BC002908073983
:1003E000A000A035A00DA00DC7303C052004BC0026
:1003F0003C13BC172B080739A000F8303D0520043A
:10040000BD003D13BD132A30E6003B08E700AC20D9
:100410002930E6003C08E700AC202830E6003D0823
:10042000E700AC20203085001A308400A0010130A4
:10043000A100A4209F303A05BA003A156030E600CA
:100440003A08E700AC207030E6003A08E700AC203C
:100450002330BB00BF01BE01BD01BC01C0010221B0
:100460000330BB00BF01BE01BD01BC01C0010221C0
:100470000730BB00BF01BE01BD01BC01C0010221AC
:100480002730BB00BF01BE01BD01BC01C00102217C
:100490000B30BB00BF01BE01BD01BC01C001022188
:1004A0001330BB00BF01BE01BD01BC01C001022170
:1004B0001730BB00BF01BE01BD01BC01C00102215C
:1004C0001B30BB00BF01BE01BD01BC01C001022148
:1004D000BB01CB208031C52D2B30E6003A08E70068
:1004E000AC208031222EBC012C302100A500200040
:1004F00081202108BA00BA0803198C2A0130BB00F8
:10050000BB0803198C2A3A083B050319892A3B08C2
:10051000BC000310BB0D802A3C08013A0319A62A2F
:10052000033A0319A82A063A0319AA2A0C3A03190E
:10053000AB2A183A0319AC2A303A0319AD2A603AAB
:100540000319AE2AC03A0319AF2AB02AB916B02A45
:10055000B916B02AB02AB02AB02AB02AB02AB02AD6
:100560003C08FF3ABA053A08A10080314F2E5908DD
:100570000739A000590CA100A10CA10C1F30A10546
:1005800021085B07840000305C3D8500A101A10AC1
:10059000A00ACB2AA10DA00BCA2ADA080319D32A74
:1005A00021088004D62AA109210880050800AA3064
:1005B000C400BB30C500C601C701C801C901CA01DA
:1005C000CB01AA30CC00BB30CD00CE01CF01D00191
:1005D000D101D201D301B9122030D5002C30D40082
:1005E0002C302100A500200081202108E0002030CF
:1005F00085003F3084002108A0000130A100A42024
:1006000060302100A500200081202108E00020307A
:100610008500373084002108A0000130A100A4200B
:1006200070302100A500200081202108E00020304A
:100630008500383084002108A0000130A100A420EA
:100640002D302100A500200081202108E00020306D
:100650008500393084002108A0000130A100A420C9
:100660005F1C4F2B3A123A10591B3A1459132D3074
:10067000E6005908E700AC20571D482B00305718FA
:1006800001300739A000A035F1303A052004BA0046
:100690006530DA006230DC006630DE006E2BDF1C75
:1006A0006B2B3A163A10D91B3A14D9132D30E600A9
:1006B0005908E700AC20580807390739A000A035D1
:1006C000F1303A052004BA007530DA007230DC00EF
:1006D0007630DE006E2B0030A100262D5A08210056
:1006E000A500200081202108E000203085003B305B
:1006F00084002108A0000130A100A4205B080F396C
:10070000BF00BA125B1BBA165C082100A5002000CE
:1007100081202108E000203085003D308400210840
:10072000A0000130A100A4203A13DD193A170230CD
:100730005C07E00000303A1B0130E1006008E8008F
:100740006108E9002030EF005330EE006808E8034C
:100750002100A400A5002000812021082100A30081
:1007600020006808E8032100A400A50020008120E3
:1007700021082100A20020006808E8032100A4004D
:10078000A5002000812021082100A1002000680888
:100790002100A5002000812021082100A0002000C8
:1007A000ED01EC01EB01EA01E9080319852C6E0863
:1007B00084006F0885000008ED01EC01EB01EA0000
:1007C0006E080319EF03EE036E0884006F088500BE
:1007D00000082100A701A601A501A4002608200009
:1007E000A300210025082000A200210024082000E9
:1007F000A100A0012008EA042108EB042208EC046F
:100800002308ED046E080319EF03EE036E0884005D
:100810006F08850000082100A701A601A501A4001A
:100820000330A405A501A601A70125082000A30007
:10083000210024082000A200A001A1012008EA0450
:100840002108EB042208EC042308ED046E08840060
:100850006F08850000082100A701A601A501A400DA
:10086000E030A405A501A601A7012000A0012100F8
:10087000240D2000A1002100250D2000A200210050
:10088000260D2000A300A10DA20DA30DA10DA20D08
:10089000A30DA10DA20DA30DA10DA20DA30DE0307E
:1008A000A1052008EA042108EB042208EC0423082F
:1008B000ED046E080319EF03EE036E0884006F0861
:1008C000850000082100A701A601A501A4002000C1
:1008D000A001A1012100240D2000A2002100250D6E
:1008E0002000A300A20DA30DA20DA30DA20DA30D28
:1008F000A20DA30DE030A2052008EA042108EB04B4
:100900002208EC042308ED04E82C0230EE0200304B
:10091000EF3B6E0884006F08850000082100A701E6
:10092000A601A501A400E030A405A501A601A70128
:10093000270C2000ED002100260C2000EC002100F7
:10094000250C2000EB002100240C2000EA00ED0C17
:10095000EC0CEB0CEA0CED0CEC0CEB0CEA0CED0CDB
:10096000EC0CEB0CEA0CED0CEC0CEB0CEA0C07308D
:10097000ED056E080319EF03EE036E0884006F089F
:10098000850000082100A701A601A501A400240DEF
:100990002000A0002100250D2000A1002100260D2F
:1009A0002000A2002100270D2000A300A00DA10D12
:1009B000A20DA30DA00DA10DA20DA30DF830A00551
:1009C0002008EA042108EB042208EC042308ED04C3
:1009D0006A08A0006B08A1006C08A2006D08A300C3
:1009E0002308C3002208C2002108C1002008C0005B
:1009F0005E08D6003F085E0756020318152D5508FD
:100A0000A3005408E0005508E10056082100A500A5
:100A10002000812061088500600884002108800092
:100A2000D40A0319D50AD60AFA2CBA13DF1BBA174F
:100A3000DF1BDF133A1E1E2DDF101F2D5F102C3021
:100A4000E6005F08E700AC200130A100A10803190F
:100A50007E2D4C08AA3C031D372D21000C122200CC
:100A60000C1621008E1222008E12432D20004C08FD
:100A7000BB3C031D442D21000C1222000C1221004E
:100A80008E1222008E1620000130D400D601D5002F
:100A90006530D700D801D8015408580203187E2DBC
:100AA0005708D9000130DA00DC00DB01B722570813
:100AB000D900DA01DC018030DB00B7221430DA0023
:100AC00040205708D900DA010130DC00DB01B722F1
:100AD0005708D900DA01DC018030DB00B722560864
:100AE000D900D90AD9030319792DFF30DA00402043
:100AF000722D5508DA004020D80A4C2D8031512E35
:100B00006A3021009900220000142000A801013061
:100B1000A900AA000230AB0021008E140E110E10A5
:100B200022000E102000AF01AE01AD01AC01B301F7
:100B3000B201B101B001B501B401B601B701B8010C
:100B40003910B9103911B9113912B9123913B91351
:100B500023008C018E0122009201910194019301E6
:100B60000C3065000230670021008C1222008C12CC
:100B700021000C1222000C1221008C1222008C1673
:100B8000C8302000DA004020B52921008C12220054
:100B90008C12C8302000DA0040200430BB00CB208B
:100BA0002330BB00BF01BE010730BD001F30BC00B9
:100BB000C00102210330BB00BF01BE010730BD00F0
:100BC0001F30BC00C00102210730BB00BF01BE01C5
:100BD000BD001F30BC00C00102212730BB00BF0197
:100BE000BE010730BD001F30BC00C00102210B3028
:100BF000BB00BF01BE010730BD001F30BC00C001FB
:100C000002211330BB00BF01BE010730BD001F3001
:100C1000BC00C00102211730BB00BF01BE0107307C
:100C2000BD001F30BC00C00102211B30BB00BF0152
:100C3000BE010730BD001F30BC00C00102210330DF
:100C4000BA006C2ABB01CB2021008C1222008C162A
:100C5000C8302000DA0040200B138B138B1B2D2E85
:100C60000B162100151322009D110530200098005D
:100C7000990121001114200096019701960110306E
:100C8000B600C0308B0421008C1222008C12C830B8
:100C90002000DA004020B91D4F2EB911732AB91A6D
:060CA000D72A4B2E630071
:020000040001F9
:10E000000000000000000000000000000000000010
:04E01000000000000C
:02E00C00000012
:04000E008439FF1E14
:00000001FF
;PIC16F1823
;CRC=4AF1  CREATED="08-jun-20 15:05"
