:060000008031B02E00006B
:08000800830180312000200873
:10001000A4002108A5002208A6002308A7000B1EA3
:1000200013288B184328850191308400001C1A285E
:10003000111823282408A0002508A1002608A200E2
:100040002708A3000900B20B2928B30A0230B20026
:1000500036143308053C031D3028B301B40AB61426
:1000600034083C3C031D3728B401B50A3615350861
:100070003C3C0319B5019601CF3097002C30960017
:10008000111080311A2836168B1080311A28203032
:10009000850033308400000803195C280130A1007A
:1000A000A001A00B5128A10B50284A30A000A00BA2
:1000B00057285A28800B4E28080021003B08083C8E
:1000C00003196628BC00BA0DBC0B63288E140E11F0
:1000D0000E1022000E1021003B08BC00BA1B732832
:1000E00022000E112100BA1F782822000E152100CF
:1000F000BA0D22000E142000A10D8E1C21108E18A6
:10010000211422000E102100BC0B6E2820000800D4
:1001100021008E1122008E1103302100BA00083018
:10012000BB0020005D2021003808BA000830BB0069
:1001300020005D202100BA010830BB0020005D20B6
:1001400021082100B9008E1122008E1521003908E6
:100150002000A100080021080319B22820081A0075
:10016000A10BAE28080021008E1122008E11023052
:100170002100BA000830BB0020005D2021002908C2
:10018000BA000830BB0020005D2021002A08BA0018
:100190000830BB0020005D2021008E1122008E154A
:1001A000200008000F302100B8002000882021081E
:1001B000D100203085002F3084002108A0000130BC
:1001C000A100AB204E0E7039A000A0351F304F05A6
:1001D0002004CF00CF150F302100A90020004F08C8
:1001E0002100AA002000B3200E302100B80020001A
:1001F00088202108D100203085003030840021087B
:10020000A0000130A100AB205008A000A00E2036B5
:1002100007394E02031DF42808002030D90037307A
:10022000D800D308031966295808840059088500A6
:100230004F08800058080319D903D80358088400D0
:10024000590885005008800058080319D903D803BD
:10025000580884005908850051080339800058085F
:100260008400590885005108A000A00DA00DA00D24
:10027000F830A0052008E039000480005808840008
:100280005908850000080838800058080319D90368
:10029000D80358088400590885005108A000A00E12
:1002A000A00C0730A00520080739800058088400FA
:1002B000590885005208A000A00DA00DA00DF8302F
:1002C000A0052008F83900048000A52958088400FA
:1002D00059088500800158080319D903D803580824
:1002E000840059088500800158080319D903D803F0
:1002F00058088400590885004F08A000A00EA00DE2
:10030000E030A0052008E039800058080319D9031F
:10031000D80358088400590885004F08A000A00C95
:10032000A00CA00C1F30A00520081F398000580821
:100330008400590885005008A000A00EA00DE030F0
:10034000A0052008E039000480004E08CE03DA0042
:100350002100A900200057082100AA002000B32096
:100360004E08CE03DA002100A90020005608210023
:10037000AA002000B3204E08CE03DA002100A90015
:10038000200055082100AA002000B3204E082100BB
:10039000A900200054082100AA002000B320080072
:1003A00021008E1122008E1521008E1022008E1049
:1003B00021000E1022000E1021000E15C03020006A
:1003C000CE0021008E1122008E1120004E08210047
:1003D000BA000830BB0020005D2021008E112200F1
:1003E0008E1514302000D30047200430CE00D220D8
:1003F00039083F39A000C0304E052004CE003F3000
:100400004E05CE003B080739A000F8304F05200408
:10041000CF003A080739A000A035A00DA00DC730C5
:100420004F052004CF004F13CF173C080739A00019
:10043000F83050052004D0005013D0132A3021008A
:10044000A90020004E082100AA002000B320293076
:100450002100A90020004F082100AA002000B3209D
:1004600028302100A900200050082100AA00200007
:10047000B320203085002D308400A0010130A10080
:10048000AB209F304D05CD004D1560302100A900F7
:1004900020004D082100AA002000B3207030210068
:1004A000A90020004D082100AA002000B32023301D
:1004B000CE00D201D101D001CF01D3010D210330F3
:1004C000CE00D201D101D001CF01D3010D210730DF
:1004D000CE00D201D101D001CF01D3010D212730AF
:1004E000CE00D201D101D001CF01D3010D210B30BB
:1004F000CE00D201D101D001CF01D3010D211330A3
:10050000CE00D201D101D001CF01D3010D2117308E
:10051000CE00D201D101D001CF01D3010D211B307A
:10052000CE00D201D101D001CF01D3010D21CE01E6
:10053000D22080311B2F2B302100A90020004D0834
:100540002100AA002000B3208031782FCF012C3069
:100550002100B800200088202108CD00CD08031D0F
:10056000B42A0430A100FB2A4D080139031DBC2A1E
:100570004D0802390319C02A36170130A100FB2AA1
:100580004D0820390319C72A0530A100FB2A4D0860
:1005900080390319CE2A0630A100FB2A2C30D00066
:1005A0004D08D100D20121008E1122008E1105309C
:1005B0002100BA000830BB0020005D205008210057
:1005C000BA000830BB0020005D2051082100BA00AD
:1005D0000830BB0020005D2052082100BA0008301E
:1005E000BB0020005D2021008E1122008E1520000E
:1005F000CD010330A1008031A62F52080739A00099
:10060000520CA100A10CA10C1F30A1052108540718
:1006100084000030553D8500A101A10AA00A112BDC
:10062000A10DA00B102BD3080319192B210880044E
:100630001C2BA109210880050800D101D1014D081A
:1006400051020318512B5008D2000130D300D500BD
:10065000D401FD225008D200D301D5018030D4004E
:10066000FD221430D30047205008D200D3010130BE
:10067000D500D401FD225008D200D301D50180302D
:10068000D400FD224F08D200D20AD20303194C2B0A
:10069000FF30D3004720452B4E08D3004720D10A16
:1006A0001F2B8031B32FAA30D700BB30D800D9011F
:1006B000DA01DB01DC01DD01DE01AA30DF00BB3045
:1006C000E000E101E201E301E401E501E60120309F
:1006D000E8003F30E7002C302100B80020008820DF
:1006E00021082100A3002030850052308400230817
:1006F0002000A0000130A100AB2060302100B80034
:100700002000882021082100A300203085004A30E5
:10071000840023082000A0000130A100AB2070302D
:100720002100B8002000882021082100A3002030EB
:1007300085004B30840023082000A0000130A10078
:10074000AB202D302100B800200088202108210096
:10075000A300203085004C30840023082000A00036
:100760000130A100AB202100221CD92B20004D120A
:100770004D106C1B4D146C132D302100A90020006E
:100780006C082100AA002000B3206A1DD12B003084
:100790006A1801300739A000A035F1304D0520045A
:1007A000CD006530ED006230EF0066302100A10021
:1007B000002CA21CFB2B20004D164D10EC1B4D14E1
:1007C000EC132D302100A90020006C082100AA00A4
:1007D0002000B3206B0807390739A000A035F1309D
:1007E0004D052004CD007530ED007230EF007630FD
:1007F0002100A100002C00302000A100172E2100B4
:1008000020006D082100B800200088202108210068
:10081000A300203085004E30840023082000A00073
:100820000130A100AB206E080F39D200CD126E1B33
:10083000CD166F082100B800200088202108210073
:10084000A300203085005030840023082000A00041
:100850000130A100AB204D132100A01D322C20003F
:100860004D172100023020006F072100A300003047
:1008700020004D1B01302100A4002308AB002408F8
:10088000AC002030B2006630B1002B08AB03B700DB
:10089000B8002000882021082100B6002B08AB03F7
:1008A000B700B8002000882021082100B5002B08DF
:1008B000AB03B700B8002000882021082100B40055
:1008C0002B08B8002000882021082100B300B001C7
:1008D000AF01AE01AD01AC080319522D3208200062
:1008E000A3002100310884002000230885000008AF
:1008F0002100B001AF01AE01AD0031080319B20310
:10090000B10332082000A300210031088400200038
:100910002308850000082100BA01B901B801B70019
:1009200039082000A300210038082000A20021007F
:1009300037082000A100A00120082100AD042000FC
:1009400021082100AE04200022082100AF0420006D
:1009500023082100B00431080319B203B10332089F
:100960002000A30021003108840020002308850016
:1009700000082100BA01B901B801B7000330B7057A
:10098000B801B901BA0138082000A30021003708D6
:100990002000A200A001A10120082100AD04200038
:1009A00021082100AE04200022082100AF0420000D
:1009B00023082100B00432082000A30021003108E0
:1009C000840020002308850000082100BA01B90135
:1009D000B801B700E030B705B801B901BA0120008D
:1009E000A0012100370D2000A1002100380D2000BA
:1009F000A2002100390D2000A300A10DA20DA30D1E
:100A0000A10DA20DA30DA10DA20DA30DA10DA20D6F
:100A1000A30DE030A10520082100AD04200021082D
:100A20002100AE04200022082100AF04200023088A
:100A30002100B00431080319B203B10332082000C9
:100A4000A30021003108840020002308850000084D
:100A50002100BA01B901B801B7002000A001A1012D
:100A60002100370D2000A2002100380D2000A30036
:100A7000A20DA30DA20DA30DA20DA30DA20DA30DFA
:100A8000E030A20520082100AD042000210821004B
:100A9000AE04200022082100AF042000230821001A
:100AA000B004BF2D0230B1020030B23B320820004A
:100AB000A3002100310884002000230885000008DD
:100AC0002100BA01B901B801B700E030B705B8019B
:100AD000B901BA013A0CB000390CAF00380CAE00C5
:100AE000370CAD00B00CAF0CAE0CAD0CB00CAF0CB5
:100AF000AE0CAD0CB00CAF0CAE0CAD0CB00CAF0C22
:100B0000AE0CAD0C0730B00531080319B203B103C8
:100B100032082000A30021003108840020002308AF
:100B2000850000082100BA01B901B801B700370DEE
:100B30002000A0002100380D2000A1002100390D67
:100B40002000A20021003A0D2000A300A00DA10D5D
:100B5000A20DA30DA00DA10DA20DA30DF830A005AF
:100B600020082100AD04200021082100AE0420004F
:100B700022082100AF04200023082100B0042D0822
:100B80002000A00021002E082000A10021002F0835
:100B90002000A200210030082000A3002308D60076
:100BA0002208D5002108D4002008D3002100210804
:100BB0002000E900520821002107200069020318E3
:100BC000FD2D6808A30067082100A3002000680825
:100BD0002100A400200069082100B800200088201E
:100BE00021002408850023088400200021088000BB
:100BF000E70A0319E80AE90ADA2DCD132100A21F3A
:100C0000042E2000CD172100A21BA21320004D1E90
:100C10000D2E2100A2100F2E2000210022102C30BA
:100C2000A9002208AA002000B3200130A100A108D9
:100C30000319332E5F08AA3C031D272E21008E12B4
:100C400022008E1201302000A100352E332E5F08C5
:100C5000BB3C031D332E21008E1222008E16013064
:100C60002000A100352E0030A1008031B42F4E08A5
:100C7000A3004D08D6002308D7002030D9002F301C
:100C8000D8000730A10057088500560884000008E6
:100C9000A000590885005808840020088000D80A60
:100CA0000319D90AD60A0319D70AA10B432E5408EF
:100CB000A30053088400230885000008D600A00084
:100CC0005508A1000319672EA036A10B642E201C25
:100CD0007C2E5408A300530884005408850001307A
:100CE000A0005508A1000319782EA035A10B752E80
:100CF0002008FF3A8005AE2ED008031D8A2E380842
:100D00001E3C031DAE2E4F08D00003104F0D3802BD
:100D1000D2009C2E5408A300530884005408850078
:100D20000130A0005508A1000319992EA035A10B90
:100D3000962E20088004D0034D0884004E088500BC
:100D40004F0880005008813F5108823F5208833F7E
:100D50005308843F5408853F5508863F8031BF2F94
:100D60006A3021009900220000142000AB01AA0182
:100D7000A901A801AF01AE01AD01AC01B101B00103
:100D8000B201B301B401B5013610B6103611B61177
:100D90003612B6123613B61337101E30B800B9012A
:100DA0000130BA00BB000230BC0021008E140E11CD
:100DB0000E1022000E1023008C018E0122009201E1
:100DC0009101940193012000BD01BE010C3065002A
:100DD0000230670021008C0122008C0121008E016D
:100DE00022008E012000BF00C0010A30C100C201F4
:100DF0000130C4000C30C3000430C5000230C6000E
:100E0000C7010A30C800C9010130CB000E30CA004A
:100E10000530CC0021000C1222000C1221008E1291
:100E200022008E1221000C1222000C16C830200065
:100E3000D3004720D02921000C1222000C12C83008
:100E40002000D30047200430CE00D2202330CE0033
:100E5000D201D1010730D0001F30CF00D3010D21C6
:100E60000330CE00D201D1010730D0001F30CF00B7
:100E7000D3010D210730CE00D201D101D0001F30A7
:100E8000CF00D3010D212730CE00D201D101073090
:100E9000D0001F30CF00D3010D210B30CE00D20186
:100EA000D1010730D0001F30CF00D3010D21133006
:100EB000CE00D201D1010730D0001F30CF00D301C6
:100EC0000D211730CE00D201D1010730D0001F30E4
:100ED000CF00D3010D211B30CE00D201D10107304C
:100EE000D0001F30CF00D3010D210330CD009B2A4D
:100EF000CE01D22021000C1222000C16C830200096
:100F0000D30047200B138B138B1B832F0B16210051
:100F1000151322009D113530200098009901210001
:100F2000111420009601970196010230B200C030E2
:100F30008B0421000C1222000C12C8302000D300B8
:100F400047203612361EA82F3612A62A2108BF00C7
:100F5000361FB72F36130130CD00CF013230CE000F
:100F60007530D0001D2B532B2108BE00BD01361C4F
:100F7000C32F36102030CE001F30CD00372EB80BD7
:100F8000C32F1E30B800B61CCD2FB610BD0A3D08C9
:0E0F9000053C0318CD2F0730BF00A22F6300D1
:020000040001F9
:10E000005300570035002E00330034003300350034
:02E0100000000E
:10E010000000000000000B0000000D0000000000E8
:06E02000000011001200D7
:04000E008439FF1E14
:00000001FF
;PIC16F1823
;CRC=E051  CREATED="10-set-20 14:54"
