:060000008031422A0000DD
:08000800830180312000200873
:10001000A4002108A5002208A6002308A7002300A9
:1000200011082000A800230012082000A9002300C6
:1000300013082000AA00230014082000AB0085014B
:1000400091308400001C2628111845288501913024
:100050008400801E2D28911A65282408A0002508F8
:10006000A1002608A2002708A30028082300910069
:10007000200029082300920020002A082300930072
:1000800020002B08230094000900AD0B4B28AE0A7A
:100090000230AD0031142E08053C031D5228AE017C
:1000A000AF0AB1142F083C3C031D5928AF01B00A18
:1000B000311530083C3C0319B0019601CF30970050
:1000C0002C309600111080312D28911E65282300B8
:1000D00019082000B300911280312D286539F22FC4
:1000E000ED32F339E13365006539F22FED37F63241
:1000F000ED326E3A000030305602D7003408560216
:100100000319E1285708073C0318DF286E30230045
:100110009100003092000B088B1395171514000006
:100120000000891B8B1713087F390319D62820007C
:10013000D800230011082000D90023001208200055
:10014000DA005808111EA22823009A00200059083E
:100150002300910020005A08230092000B088B1303
:100160009517151400000000891B8B17130D140D33
:100170007F390319D6282000D80023001108200059
:10018000D900230012082000DA005808111EC628E2
:1001900023009A00200059082300910020005A08EB
:1001A00023009200910A0319920A8B282000340838
:1001B000B30030303402D7005708A100E3285608B6
:1001C000B4005708A1008031D52A20308500413085
:1001D000840000080319FA280130A100A001A00B37
:1001E000EF28A10BEE284A30A000A00BF528F82834
:1001F000800BEC280800D808031D022922008E116C
:100200000429200022008E1521008E1120000800F4
:10021000571021000C1520000C1D6C297430230090
:100220009100003092000B088B13951715140000F5
:100230000000891B8B1713087F3903195E292000E2
:10024000D800230011082000D90023001208200044
:10025000DA005808111E2A2923009A0020005908A4
:100260002300910020005A08230092000B088B13F2
:100270009517151400000000891B8B17130D140D22
:100280007F3903195E292000D800230011082000BF
:10029000D900230012082000DA005808111E4E2948
:1002A00023009A00200059082300910020005A08DA
:1002B00023009200910A0319920A13290D3020009D
:1002C000111E602923009A000A302000111E6629A1
:1002D00023009A00CB29200032085602031D7429FE
:1002E0002300CB29CB2920000130D800FB20560861
:1002F000B200560B852921008C1222008C16210099
:100300000C1222000C128D29200021000C12220058
:100310000C1621008C1222008C125F302000111E5E
:100320008F2923009A000A302000111E95292300EE
:100330009A0021000C1520000C1DB5292F30111E2C
:100340009F2923009A000A302000111EA5292300AE
:100350009A0004302000D800FA30E100E520D80BE4
:10036000AC2957142300992920000430D800FA3012
:10037000E100E520D80BB7295718C02922008D29A4
:100380007C30111EC12923009A000A302000111E62
:10039000C72923009A00200008004D084C020319C9
:1003A000402A4C08CD004C08073C0318232A0B3088
:1003B000D6000130D700DB01DA01D9014C08D800A2
:1003C000DC01DC0157085C020318F8293D305C07AA
:1003D0008400203085000318850A580880005908D9
:1003E000D8005A08D9005B08DA00DB01DC0AE229F0
:1003F000D7080319232A5608D60AE100D7033D304F
:1004000057078400203085000318850A0008E200A1
:100410000B08A0008B1361082300910020006208E4
:10042000230093009513151555309600AA309600B9
:1004300095149518192A1511200020088B040130F5
:10044000E100E520F8294C08073C031D2C2AD601C1
:100450000821D801FB203C2A4C08063C031D362A03
:10046000D60108210130D800FB203C2A0130D600FB
:1004700008210130D800FB204C1C402AD801FB2069
:100480008031D82A6A302100990022001D159D175D
:1004900023009F1119309B00A6309E0090309D00D4
:1004A0001E302000AC00AD01AE01AF01B001311033
:1004B000B1103111B111B2013730B300B4000730BF
:1004C000CC00CD0123008C018E012200920191010C
:1004D0009401930165302000B5007230B600B7007A
:1004E0005F30B8006D30B9006530BA007330BB00C2
:1004F000BC006130BD006730BE006530BF00C00089
:100500007230C100C2005F30C3006D30C4006F3074
:10051000C5007630C6006530C7006D30C800653054
:10052000C9006E30CA007430CB00CE01CF01D001BB
:10053000D101D201D30121001E129E161E139E135B
:100540001D140B138B138B1BA22A911622009D11D5
:1005500035302000980099012100111420009601E7
:10056000970196010230AD00C0308B04C830D50031
:10057000B430D40021000C1222000C1621008C1281
:1005800022008C122000B11CD82AB1103308111E91
:10059000C72A23009A000A302000111ECD2A23000A
:1005A0009A0020003308D6007B282108CC00CD29F2
:0405B000C32A6300F7
:020000040001F9
:06E02600000000000000F4
:04000E008439FF1E14
:00000001FF
;PIC16F1823
;CRC=B0B7  CREATED="19-out-20 08:53"
