:060000008031432A0000DC
:08000800830180312000200873
:10001000A4002108A5002208A6002308A7002300A9
:1000200011082000A800230012082000A9002300C6
:1000300013082000AA00230014082000AB0085014B
:1000400091308400001C2628111845288501913024
:100050008400801E2D28911A65282408A0002508F8
:10006000A1002608A2002708A30028082300910069
:10007000200029082300920020002A082300930072
:1000800020002B08230094000900AD0B4B28AE0A7A
:100090000230AD0031142E08053C031D5228AE017C
:1000A000AF0AB1142F083C3C031D5928AF01B00A18
:1000B000311530083C3C0319B0019601CF30970050
:1000C0002C309600111080312D28911E65282300B8
:1000D00019082000B300911280312D286539F22FC4
:1000E000ED32F339E133650500006539F22FED3764
:1000F000F632ED326E3A0A0030305602D70034083C
:1001000056020319E2285708073C0318E0286E300E
:1001100023009100003092000B088B1395171514E3
:1001200000000000891B8B1713087F390319D7289B
:100130002000D800230011082000D9002300120855
:100140002000DA005808111EA32823009A0020007E
:1001500059082300910020005A08230092000B0840
:100160008B139517151400000000891B8B17130DB6
:10017000140D7F390319D7282000D8002300110857
:100180002000D900230012082000DA005808111EB0
:10019000C72823009A00200059082300910020005E
:1001A0005A0823009200910A0319920A8C28200011
:1001B0003408B30030303402D7005708A100E428D7
:1001C0005608B4005708A1008031D62A2030850097
:1001D0004130840000080319FB280130A100A00170
:1001E000A00BF028A10BEF284A30A000A00BF628A6
:1001F000F928800BED280800D808031D03292200E8
:100200008E110529200022008E1521008E1120005C
:100210000800571021000C1520000C1D6D297530A9
:1002200023009100003092000B088B1395171514D2
:1002300000000000891B8B1713087F3903195F2901
:100240002000D800230011082000D9002300120844
:100250002000DA005808111E2B2923009A002000E4
:1002600059082300910020005A08230092000B082F
:100270008B139517151400000000891B8B17130DA5
:10028000140D7F3903195F292000D80023001108BD
:100290002000D900230012082000DA005808111E9F
:1002A0004F2923009A0020005908230091002000C4
:1002B0005A0823009200910A0319920A14290D305A
:1002C0002000111E612923009A000A302000111E0F
:1002D000672923009A00CC29200032085602031D0A
:1002E00075292300CC29CC2920000130D800FC201E
:1002F0005608B200560B862921008C1222008C165B
:1003000021000C1222000C128E29200021000C1258
:1003100022000C1621008C1222008C125F3020006B
:10032000111E902923009A000A302000111E9629E0
:1003300023009A0021000C1520000C1DB6292F3037
:10034000111EA02923009A000A302000111EA629A0
:1003500023009A0004302000D800FA30E100E620A3
:10036000D80BAD29571423009A2920000430D80057
:10037000FA30E100E620D80BB8295718C12922002D
:100380008E297C30111EC22923009A000A302000D9
:10039000111EC82923009A00200008004D084C02B5
:1003A0000319412A4C08CD004C08073C0318242AA5
:1003B0000B30D6000130D700DB01DA01D9014C083F
:1003C000D800DC01DC0157085C020318F9293D3034
:1003D0005C078400203085000318850A58088000D7
:1003E0005908D8005A08D9005B08DA00DB01DC0A9A
:1003F000E329D7080319242A5608D60AE100D703AF
:100400003D3057078400203085000318850A000816
:10041000E2000B08A0008B1361082300910020006C
:100420006208230093009513151555309600AA30E5
:100430009600951495181A2A1511200020088B048F
:100440000130E100E620F9294C08073C031D2D2A64
:10045000D6010921D801FC203D2A4C08063C031D89
:10046000372AD60109210130D800FC203D2A01306D
:10047000D60009210130D800FC204C1C412AD801AB
:10048000FC208031D92A6A302100990022001D15F4
:100490009D1723009F1119309B00A6309E009030BD
:1004A0009D001E302000AC00AD01AE01AF01B001D7
:1004B0003110B1103111B111B2013730B300B400B5
:1004C0000730CC00CD0123008C018E012200920167
:1004D00091019401930165302000B5007230B6009F
:1004E000B7005F30B8006D30B9006530BA007330C6
:1004F000BB00BC006130BD006730BE006530BF008E
:10050000C0007230C100C2005F30C3006D30C40053
:100510006F30C5007630C6006530C7006D30C8004A
:100520006530C9006E30CA007430CB00CE01CF01F7
:10053000D001D101D201D30121001E129E161E133B
:100540009E131D140B138B138B1BA32A91162200D1
:100550009D113530200098009901210011142000D0
:100560009601970196010230AD00C0308B04C8306F
:10057000D500B430D40021000C1222000C1621004A
:100580008C1222008C122000B11CD92AB110330821
:10059000111EC82A23009A000A302000111ECE2AFC
:1005A00023009A0020003308D6007C282108CC00C4
:0605B000CE29C42A6300FD
:020000040001F9
:06E02600000000000000F4
:04000E008439FF1E14
:00000001FF
;PIC16F1823
;CRC=A716  CREATED="19-out-20 15:15"
