:0600000080312B2A0000F4
:08000800830180312000200873
:10001000A4002108A5002208A6002308A7002300A9
:1000200011082000A800230012082000A9002300C6
:1000300013082000AA00230014082000AB0085014B
:1000400091308400001C2628111845288501913024
:100050008400801E2D28911A65282408A0002508F8
:10006000A1002608A2002708A30028082300910069
:10007000200029082300920020002A082300930072
:1000800020002B08230094000900AD0B4B28AE0A7A
:100090000230AD0031142E08053C031D5228AE017C
:1000A000AF0AB1142F083C3C031D5928AF01B00A18
:1000B000311530083C3C0319B0019601CF30970050
:1000C0002C309600111080312D28911E65282300B8
:1000D00019082000B300911280312D286539F22FC4
:1000E000ED32F339E13365006539F22FED37F63241
:1000F000ED326E3A0000111E7B2823009A0020008A
:10010000080030305602D700340856020319E72899
:100110005708073C0318E5286E3023009100003093
:1001200092000B088B139517151400000000891B13
:100130008B1713087F390319DC282000D80023000F
:1001400011082000D900230012082000DA00580806
:10015000111EA82823009A002000590823009100AE
:1001600020005A08230092000B088B1395171514D2
:1001700000000000891B8B17130D140D7F39031924
:10018000DC282000D800230011082000D90023001B
:1001900012082000DA005808111ECC2823009A000B
:1001A000200059082300910020005A0823009200E3
:1001B000910A0319920A912820003408B3003030C4
:1001C0003402D7005708A100E9285608B4005708A0
:1001D000A1008031B42A203085004130840000081D
:1001E000031900290130A100A001A00BF528A10BE3
:1001F000F4284A30A000A00BFB28FE28800BF22830
:100200000800D808031D082922008E110A292000A1
:1002100022008E1521008E112000080057102100A9
:100220000C1520000C1D7229743023009100003041
:1002300092000B088B139517151400000000891B02
:100240008B1713087F39031964292000D800230075
:1002500011082000D900230012082000DA005808F5
:10026000111E302923009A00200059082300910014
:1002700020005A08230092000B088B1395171514C1
:1002800000000000891B8B17130D140D7F39031913
:1002900064292000D800230011082000D900230081
:1002A00012082000DA005808111E542923009A0071
:1002B000200059082300910020005A0823009200D2
:1002C000910A0319920A19290D302000111E66297E
:1002D00023009A000A302000111E6C2923009A0086
:1002E000B429200032085602031D7A292300B429BC
:1002F000B42920000130D80001215608B200560B65
:100300008B2921008C1222008C1621000C12220055
:100310000C129329200021000C1222000C1621003F
:100320008C1222008C125F3020007B2021000C15E3
:1003300020000C1DA6292F307B200430D800FA3075
:10034000E100EB20D80B9F29571496290430D800E0
:10035000FA30E100EB20D80BA8295718B129220068
:1003600093297C307B202300200008004D084C029C
:100370000319292A4C08CD004C08073C03180C2A05
:100380000B30D6000130D700DB01DA01D9014C086F
:10039000D800DC01DC0157085C020318E1293D307C
:1003A0005C078400203085000318850A5808800007
:1003B0005908D8005A08D9005B08DA00DB01DC0ACA
:1003C000CB29D70803190C2A5608D60AE100D7030F
:1003D0003D3057078400203085000318850A000847
:1003E000E2000B08A0008B1361082300910020009D
:1003F0006208230093009513151555309600AA3016
:10040000960095149518022A1511200020088B04D7
:100410000130E100EB20E1294C08073C031D152ABF
:10042000D6010E21D8010121252A4C08063C031DC6
:100430001F2AD6010E210130D8000121252A0130C2
:10044000D6000E210130D80001214C1C292AD801E8
:1004500001218031B72A6A302100990022001D1540
:100460009D1723009F1119309B00A6309E009030ED
:100470009D001E302000AC00AD01AE01AF01B00107
:100480003110B1103111B111B2013730B300B400E5
:100490000730CC00CD0123008C018E012200920197
:1004A00091019401930165302000B5007230B600CF
:1004B000B7005F30B8006D30B9006530BA007330F6
:1004C000BB00BC006130BD006730BE006530BF00BE
:1004D000C0007230C100C2005F30C3006D30C40084
:1004E0006F30C5007630C6006530C7006D30C8007B
:1004F0006530C9006E30CA007430CB00CE01CF0128
:10050000D001D101D201D30121001E129E161E136B
:100510009E131D140B138B138B1B8B2A9116220019
:100520009D11353020009800990121001114200000
:100530009601970196010230AD00C0308B04C8309F
:10054000D500B430D40021000C1222000C1621007A
:100550008C1222008C122000B11CB72AB110330873
:100560007B203308D60081282108CC00B629AC2A8C
:02057000630026
:020000040001F9
:06E02600000000000000F4
:04000E008439FF1E14
:00000001FF
;PIC16F1823
;CRC=FA64  CREATED="16-out-20 23:27"
