:060000008031EE2B000030
:08000800830180312000200873
:10001000A4002108A5002208A6002308A7002300A9
:1000200011082000A800230012082000A9002300C6
:1000300013082000AA00230014082000AB0085014B
:1000400091308400001C2628111845288501913024
:100050008400801E2D28911A65282408A0002508F8
:10006000A1002608A2002708A30028082300910069
:10007000200029082300920020002A082300930072
:1000800020002B08230094000900AD0B4B28AE0A7A
:100090000230AD0031142E08053C031D5228AE017C
:1000A000AF0AB1142F083C3C031D5928AF01B00A18
:1000B000311530083C3C0319B0019601CF30970050
:1000C0002C309600111080312D28911E65282300B8
:1000D00019082000B400911280312D286539F22FC3
:1000E000ED32F339E133650500006539F22FED3764
:1000F000F632ED326E3A0D050000E33664103D1025
:10010000733A613AF539DF366F3A6F390D05000100
:10011000ED37F43772106236EF380D050001ED3718
:10012000F4377210E4327331EC37F1060A006136AD
:10013000741DA012F5060A00A53A2C10A53A2C1041
:10014000A5313A10A53A3B100D050000203085007E
:100150004A30840000080319BB280130A100A00127
:10016000A00BB028A10BAF284A30A000A00BB628E6
:10017000B928800BAD2808005F088400600885005E
:10018000013FA300003FE1002308E200B208031989
:10019000E128B20121009D149D18CC281C082000E4
:1001A000E2000630A000A00BD32800001030A10010
:1001B00021001D0883392000210421009D00F8281A
:1001C00020000130B20021009D149D18E5281C0874
:1001D0002000E1000630A000A00BEC280000143045
:1001E000A10021001D0883392000210421009D0069
:1001F00020005F08840060088500610880006208B4
:10020000813F8031DD2CE1015F08DB3C03180E29C2
:100210006008593C03180E290330E1005F08DB3CFD
:10022000031C18296008593C031818290230E10002
:100230005F08DB3C031822296008593C031C222973
:100240000130E1005F08DB3C031C2A296008593CAF
:100250000318E1016108A1008031E22C3408B500E7
:100260003408423C031D3B2921008E1222008E16C9
:100270002000D6014D293408443C031D48292100A3
:100280008E1222008E122000B8010430D6004D29B3
:100290003408523C031D4D29010021000E1210307C
:1002A00022008E0620005608A1008031E52C63084C
:1002B000A101620203185F296208A0006B29A00156
:1002C0000830E400E20DA00D630820020318A0002E
:1002D000A10DE40B6229080021086008E2006430E7
:1002E000E30057212008E00021083030031D7F295A
:1002F000E11C8929E1198929611A20308229E1113B
:1003000061126114A1072108111E842923009A009B
:1003100020006008E2000A30E30057212008E000D6
:1003200021083030031D9A29E119A129611CA12956
:10033000611A2030A1072108111E9C2923009A0070
:1003400020003030E0076008111EA42923009A0025
:10035000200008000B088B132300951715140000CC
:100360000000891B8B170318DE2913087F39200032
:10037000E100230011082000E20023001208200001
:10038000E3006108111EC22923009A0020006208C0
:100390002300910020006308230092000B088B13B8
:1003A0009517151400000000891B8B172000E00B27
:1003B000DA29DC292300DE29FF292300130D140D7F
:1003C0007F392000E100230011082000E200230013
:1003D00012082000E3006108111EEC2923009A0096
:1003E000200062082300910020006308230092008F
:1003F000910A0319920A03102000E00BAA290800B1
:100400000B088B1323009517151400000000891B9F
:100410008B1713087F3903194E2A2000E1002300AF
:1004200011082000E200230012082000E300610808
:10043000111E182A23009A00200062082300910050
:1004400020006308230092000B088B1395171514E6
:1004500000000000891B8B17130D140D7F39031941
:100460004E2A2000E100230011082000E2002300B2
:1004700012082000E3006108111E3C2A23009A00A4
:1004800020006208230091002000630823009200EE
:10049000910A0319920A2000002A23002000080074
:1004A000E108031D572A22008E11592A200022003C
:1004B0008E1521008E1120000800601021000C15FF
:1004C00020000C1DC12A75302300910000309200DD
:1004D0000B088B139517151400000000891B8B1750
:1004E00013087F390319B32A2000E1002300110803
:1004F0002000E200230012082000E3006108111E22
:100500007F2A23009A002000620823009100200027
:100510006308230092000B088B1395171514000035
:100520000000891B8B17130D140D7F390319B32A93
:100530002000E100230011082000E200230012083F
:100540002000E3006108111EA32A23009A00200066
:100550006208230091002000630823009200910AA2
:100560000319920A682A0D302000111EB52A2300B3
:100570009A000A302000111EBB2A23009A00592B32
:10058000200033085F02031DD02A7D302300910034
:1005900000309200200000222300592B592B20000C
:1005A0000130E10050225F08B3005F0BF02A883071
:1005B00023009100003092002000002221000C1244
:1005C00022000C1202302000E100FA30EA00A620DE
:1005D000E10BE52A21008C1222008C16072B20004B
:1005E0008F30230091000030920020000022210073
:1005F0008C1222008C1202302000E100FA30EA0056
:10060000A620E10BFE2A21000C1222000C165F30FE
:100610002000111E092B23009A000D302000111E0E
:100620000F2B23009A000A302000111E152B2300E7
:100630009A0004302000E100FA30EA00A620E10B25
:100640001C2B21000C1520000C1D412B2F30111EDE
:10065000272B23009A000D302000111E2D2B230084
:100660009A000A302000111E332B23009A00043018
:100670002000E100FA30EA00A620E10B3A2B6014DA
:10068000212B6018452B2200072B7C30111E462B96
:1006900023009A000D302000111E4C2B23009A00DD
:1006A0000A302000111E522B23009A0020006010F7
:1006B000230020000800370836020319EC2B370806
:1006C0003606DF00973023009100003092000310BF
:1006D00005302000E000AA215F08E0001B30E100A7
:1006E0006C210D30111E722B23009A000A3020005D
:1006F000111E782B23009A0020003608B700360818
:10070000073C0318CF2B0B30DF000130E000E40181
:10071000E301E2013608E100E501E5016008650258
:100720000318A42B46306507840020308500031889
:10073000850A610880006208E1006308E20064083D
:10074000E300E401E50A8E2BE0080319CF2B5F08D4
:10075000DF0AEA00E00346306007840020308500AD
:100760000318850A0008EB000B08A0008B136A0829
:100770002300910020006B082300930095131515AA
:1007800055309600AA30960095149518C52B151172
:10079000200020088B040130EA00A620A42B360894
:1007A000073C031DD82BDF015D22E1015022E82B1D
:1007B0003608063C031DE22BDF015D220130E1001B
:1007C0005022E82B0130DF005D220130E100502291
:1007D000361CEC2BE10150228031342D6A3021008F
:1007E000990022001D159D1723009F1119309B00B1
:1007F000A6309E0090309D001E302000AC00AD0160
:10080000AE01AF01B0013110B1103111B1110130A1
:10081000B200B3014430B400B5010730B600B701EF
:10082000B8010430D60023008C018E012200920111
:10083000910194019301462C0C3400343B3465340F
:10084000723472345F346D346534733473346134AC
:100850006734653400340234003439341B342034B6
:100860000D34003449346534723472345F346D347D
:100870006F34763465346D3465346E3474340034DA
:1008800002340034473429342034003404308500E5
:100890001C308400851712002000A000003A0319C4
:1008A000632C1200A100A11B592C0F3987001200E4
:1008B0008600211B1200211F12001E00A00B5B2CC2
:1008C00022004B2C2000D701D801D901DA01DB012D
:1008D000DC0121001E129E161E139E131D140B1305
:1008E0008B138B1B702C911622009D11353020002C
:1008F000980099012100111420009601970196019A
:100900000230AD00C0308B041430A10021001D085E
:1009100083392000210421009D00FF302000DE00EB
:10092000DD0021000E1222000E1221008E12220084
:100930008E1221008C1222008C1221008E12203087
:1009400022008E0602302000DF00FA30EA00A620E6
:10095000DF0BA52C21008E12203022008E060230E3
:100960002000DF00FA30EA00A620DF0BB22C2100C5
:100970000C1222000C1621008E12203022008E064E
:1009800002302000DF00FA30EA00A620DF0BC32C83
:1009900021008E12203022008E0602302000DF005F
:1009A000FA30EA00A620DF0BD02CB11C342DB11098
:1009B0002030E0003D30DF00BC285E08E0005D082C
:1009C000DF0003292108D9002E292108DA005A085E
:1009D0005907B6005E08E0001B30E1006C212C30A6
:1009E000111EF02C23009A0020302000111EF62C3E
:1009F00023009A0020005D08E0001B30E1006C211C
:100A00002C30111E012D23009A0020302000111ED1
:100A1000072D23009A0020003408111E0D2D2300FD
:100A20009A003A302000111E132D23009A00203026
:100A30002000111E192D23009A0020003608E00026
:100A40001B30E1006C21A3302300910000309200A4
:100A5000031004302000E000AA2121000E12103003
:0C0A600022008E0620005B2BD52C6300CA
:020000040001F9
:06E02600000000000000F4
:04000E008439FF1E14
:00000001FF
;PIC16F1823
;CRC=0D0C  CREATED="30-out-20 10:36"
