:060000008031EA2B000034
:08000800830180312000200873
:10001000A4002108A5002208A6002308A7002300A9
:1000200011082000A800230012082000A9002300C6
:1000300013082000AA00230014082000AB0085014B
:1000400091308400001C2628111845288501913024
:100050008400801E2D28911A65282408A0002508F8
:10006000A1002608A2002708A30028082300910069
:10007000200029082300920020002A082300930072
:1000800020002B08230094000900AD0B4B28AE0A7A
:100090000230AD0031142E08053C031D5228AE017C
:1000A000AF0AB1142F083C3C031D5928AF01B00A18
:1000B000311530083C3C0319B0019601CF30970050
:1000C0002C309600111080312D28911E65282300B8
:1000D00019082000B400911280312D286539F22FC3
:1000E000ED32F339E133650500006539F22FED3764
:1000F000F632ED326E3A0D050000E33664103D1025
:10010000733A613AF539DF366F3A6F390D05000100
:10011000ED37F43772106236EF380D050001ED3718
:10012000F4377210E4327331EC37F1060A006136AD
:10013000741DA012F5060A00A53A2C10A53A2C1041
:10014000A5313A10A53A3B100D050000203085007E
:100150004A30840000080319BB280130A100A00127
:10016000A00BB028A10BAF284A30A000A00BB628E6
:10017000B928800BAD2808005F088400600885005E
:10018000013FA300003FE1002308E200B208031989
:10019000E128B20121009D149D18CC281C082000E4
:1001A000E2000630A000A00BD32800001030A10010
:1001B00021001D0883392000210421009D00F8281A
:1001C00020000130B20021009D149D18E5281C0874
:1001D0002000E1000630A000A00BEC280000143045
:1001E000A10021001D0883392000210421009D0069
:1001F00020005F08840060088500610880006208B4
:10020000813F8031DB2C3408B5003408423C031DAB
:100210000B29D60118293408443C031D1329B801C1
:100220000430D60018293408523C031D1829010057
:100230005608A1008031DC2C6308A101620203187A
:1002400024296208A0003029A0010830E400E20D52
:10025000A00D630820020318A000A10DE40B2729BC
:10026000080021086008E2006430E3001C21200837
:10027000E00021083030031D4429E11C4E29E1191A
:100280004E29611A20304729E11161126114A1073A
:100290002108111E492923009A0020006008E2006D
:1002A0000A30E3001C212008E00021083030031D43
:1002B0005F29E1196629611C6629611A2030A107AE
:1002C0002108111E612923009A0020003030E00728
:1002D0006008111E692923009A00200008000B08FD
:1002E0008B1323009517151400000000891B8B1732
:1002F0000318A32913087F392000E1002300110807
:100300002000E200230012082000E3006108111E13
:10031000872923009A002000620823009100200012
:100320006308230092000B088B1395171514000027
:100330000000891B8B172000E00B9F29A1292300B7
:10034000A329C4292300130D140D7F392000E100D7
:10035000230011082000E200230012082000E3001F
:100360006108111EB12923009A00200062082300B1
:1003700091002000630823009200910A0319920A59
:1003800003102000E00B6F2908000B088B132300DB
:100390009517151400000000891B8B1713087F396F
:1003A0000319132A2000E100230011082000E200B5
:1003B000230012082000E3006108111EDD2923003C
:1003C0009A002000620823009100200063082300A7
:1003D00092000B088B139517151400000000891B61
:1003E0008B17130D140D7F390319132A2000E10018
:1003F000230011082000E200230012082000E3007F
:100400006108111E012A23009A00200062082300BF
:1004100091002000630823009200910A0319920AB8
:100420002000C529230020000800E108031D1C2A24
:1004300022008E111E2A200022008E1521008E110E
:100440002000E108031D282A22008E122A2A2000FB
:1004500022008E1621008E1220000800601021005C
:100460000C1520000C1D922A7530230091000030DD
:1004700092000B088B139517151400000000891BC0
:100480008B1713087F390319842A2000E100230009
:1004900011082000E200230012082000E300610898
:1004A000111E502A23009A002000620823009100A8
:1004B00020006308230092000B088B139517151476
:1004C00000000000891B8B17130D140D7F390319D1
:1004D000842A2000E100230011082000E20023000C
:1004E00012082000E3006108111E742A23009A00FC
:1004F000200062082300910020006308230092007E
:10050000910A0319920A392A0D302000111E862AF9
:1005100023009A000A302000111E8C2A23009A0022
:100520002A2B200033085F02031DA12A7D302300FF
:100530009100003092002000C52123002A2B2A2B95
:1005400020000130E10015225F08B3005F0BC12AD3
:10055000883023009100003092002000C521210046
:100560000C1222000C1202302000E100FA30EA00E6
:10057000A620E10BB62A21008C1222008C16D82A64
:1005800020008F3023009100003092002000C52110
:1005900021008C1222008C1202302000E100FA307F
:1005A000EA00A620E10BCF2A21000C1222000C1633
:1005B0005F302000111EDA2A23009A000D3020003F
:1005C000111EE02A23009A000A302000111EE62A9C
:1005D00023009A0004302000E100FA30EA00A6204F
:1005E000E10BED2A21000C1520000C1D122B2F30E1
:1005F000111EF82A23009A000D302000111EFE2A39
:1006000023009A000A302000111E042B23009A00B8
:1006100004302000E100FA30EA00A620E10B0B2BA9
:100620006014F22A6018162B2200D82A7C30111E82
:10063000172B23009A000D302000111E1D2B2300C4
:100640009A000A302000111E232B23009A0020005C
:100650006010230020000800370836020319BD2B64
:1006600037083606DF0097302300910000309200F3
:10067000031005302000E0006F215F08E0001B3010
:10068000E10031210D30111E432B23009A000A3066
:100690002000111E492B23009A0020003608B700C5
:1006A0003608073C0318A02B0B30DF000130E000B8
:1006B000E401E301E2013608E100E501E50160083B
:1006C00065020318752B46306507840020308500CD
:1006D0000318850A610880006208E1006308E200EF
:1006E0006408E300E401E50A5F2BE0080319A02B8E
:1006F0005F08DF0AEA00E00346306007840020302C
:1007000085000318850A0008EB000B08A0008B1376
:100710006A082300910020006B08230093009513C2
:10072000151555309600AA30960095149518962BFD
:100730001511200020088B040130EA00A620752B3B
:100740003608073C031DA92BDF012E22E1011522EB
:10075000B92B3608063C031DB32BDF012E220130D6
:10076000E1001522B92B0130DF002E220130E1001B
:100770001522361CBD2BE101152280312B2DE10104
:100780005F08DB3C0318CA2B6008593C0318CA2BCE
:100790000330E1005F08DB3C031CD42B6008593CAC
:1007A0000318D42B0230E1005F08DB3C0318DE2B7A
:1007B0006008593C031CDE2B0130E1005F08DB3C84
:1007C000031CE62B6008593C0318E1016108A100F5
:1007D0008031332D6A302100990022001D159D17AC
:1007E00023009F1119309B00A6309E0090309D0081
:1007F0001E302000AC00AD01AE01AF01B0013110E0
:10080000B1103111B1110130B200B3014430B40064
:10081000B5010730B600B701B8010430D600230097
:100820008C018E0122009201910194019301422CCE
:100830000C3400343B346534723472345F346D34BC
:10084000653473347334613467346534003402348E
:10085000003439341B3420340D34003449346534C9
:10086000723472345F346D346F34763465346D3481
:1008700065346E347434003402340034473429341F
:1008800020340034043085001830840085171200AD
:100890002000A000003A03195F2C1200A100A11B48
:1008A000552C0F39870012008600211B1200211FD2
:1008B00012001E00A00B572C2200472C2000D7014D
:1008C000D8010330D9000430DA00DB01DC0121005B
:1008D0001E129E161E139E131D140B138B138B1BBF
:1008E0006E2C911622009D11353020009800990140
:1008F0002100111420009601970196010230AD00ED
:10090000C0308B041430A10021001D088339200061
:10091000210421009D00FF302000DE00DD002100C9
:100920000E1222000E1221008E1222008E122100C1
:100930008C1222008C1221008E12203022008E0692
:1009400002302000DF00FA30EA00A620DF0BA32CE3
:1009500021008E12203022008E0602302000DF009F
:10096000FA30EA00A620DF0BB02C21000C12220086
:100970000C1621008E12203022008E06023020003C
:10098000DF00FA30EA00A620DF0BC12C21008E1216
:10099000203022008E0602302000DF00FA30EA000C
:1009A000A620DF0BCE2CB11C2B2DB1102030E00087
:1009B0003D30DF00BC2803292108DA005A08590716
:1009C000B6005E08E0001B30E10031212C30111E22
:1009D000E72C23009A0020302000111EED2C23006C
:1009E0009A0020005D08E0001B30E10031212C302E
:1009F000111EF82C23009A0020302000111EFE2C1E
:100A000023009A0020003408111E042D23009A00B0
:100A10003A302000111E0A2D23009A0020302000B9
:100A2000111E102D23009A0020003608E0001B3014
:100A3000E1003121A3302300910000309200031027
:100A400004302000E0006F2121000E12103022003F
:100A50008E0620002C2B311D352D31115E08E00053
:0E0A60005D08DF00BF2B2108D900D32C6300F6
:020000040001F9
:06E02600000000000000F4
:04000E008439FF1E14
:00000001FF
;PIC16F1823
;CRC=451D  CREATED="04-nov-20 15:18"
