:060000008031EE2B000030
:08000800830180312000200873
:10001000A4002108A5002208A6002308A7002300A9
:1000200011082000A800230012082000A9002300C6
:1000300013082000AA00230014082000AB0085014B
:1000400091308400001C2628111845288501913024
:100050008400801E2D28911A65282408A0002508F8
:10006000A1002608A2002708A30028082300910069
:10007000200029082300920020002A082300930072
:1000800020002B08230094000900AD0B4B28AE0A7A
:100090000A30AD0031142E08053C031D5228AE0174
:1000A000AF0AB1142F083C3C031D5928AF01B00A18
:1000B000311530083C3C0319B0019601CF30970050
:1000C0002C309600111080312D28911E65282300B8
:1000D00019082000B400911280312D286539F22FC3
:1000E000ED32F339E133650500006539F22FED3764
:1000F000F632ED326E3A0D050000E33664103D1025
:10010000733A613AF539DF366F3A6F390D05000100
:10011000ED37F43772106236EF380D050001ED3718
:10012000F4377210E4327331EC37F1060A006136AD
:10013000741DA012F5060A00A53A2C10A53A2C1041
:10014000A5313A10A53A3B100D050000203085007E
:100150004930840000080319BB280130A100A00128
:10016000A00BB028A10BAF284A30A000A00BB628E6
:10017000B928800BAD2808005E0884005F08850060
:10018000013FA300003FE0002308E100B20803198B
:10019000E128B20121009D149D18CC281C082000E4
:1001A000E1000630A000A00BD32800001030A10011
:1001B00021001D0883392000210421009D00F8281A
:1001C00020000130B20021009D149D18E5281C0874
:1001D0002000E0000630A000A00BEC280000143046
:1001E000A10021001D0883392000210421009D0069
:1001F00020005E0884005F088500600880006108B8
:10020000813F8031DB2CE0015E08DB3C03180E29C6
:100210005F08593C03180E290330E0005E08DB3C00
:10022000031C18295F08593C031818290230E00004
:100230005E08DB3C031822295F08593C031C222975
:100240000130E0005E08DB3C031C2A295F08593CB2
:100250000318E0016008A1008031E02C3408B500EB
:100260003408423C031D3B2921008E1222008E16C9
:100270002000DE014D293408443C031D482921009B
:100280008E1222008E122000B8010430DE004D29AB
:100290003408523C031D4D29010021000E1210307C
:1002A00022008E0620005E08A1008031E32C620847
:1002B000A101610203185F296108A0006B29A00158
:1002C0000830E300E10DA00D620820020318A00031
:1002D000A10DE30B6229080021085F08E1006430EA
:1002E000E20057212008DF0021083030031D7F295C
:1002F000E01C8929E0198929601A20308229E0113F
:1003000060126014A1072108111E842923009A009D
:1003100020005F08E1000A30E20057212008DF00DA
:1003200021083030031D9A29E019A129601CA12958
:10033000601A2030A1072108111E9C2923009A0071
:1003400020003030DF075F08111EA42923009A0027
:10035000200008000B088B132300951715140000CC
:100360000000891B8B170318DE2913087F39200032
:10037000E000230011082000E10023001208200003
:10038000E2006008111EC22923009A0020006108C3
:100390002300910020006208230092000B088B13B9
:1003A0009517151400000000891B8B172000DF0B28
:1003B000DA29DC292300DE29FF292300130D140D7F
:1003C0007F392000E000230011082000E100230015
:1003D00012082000E2006008111EEC2923009A0098
:1003E0002000610823009100200062082300920091
:1003F000910A0319920A03102000DF0BAA290800B2
:100400000B088B1323009517151400000000891B9F
:100410008B1713087F3903194E2A2000E0002300B0
:1004200011082000E100230012082000E20060080B
:10043000111E182A23009A00200061082300910051
:1004400020006208230092000B088B1395171514E7
:1004500000000000891B8B17130D140D7F39031941
:100460004E2A2000E000230011082000E1002300B4
:1004700012082000E2006008111E3C2A23009A00A6
:1004800020006108230091002000620823009200F0
:10049000910A0319920A2000002A23002000080074
:1004A000E008031D572A22008E11592A200022003D
:1004B0008E1521008E11200008005F1021000C1500
:1004C00020000C1DC12A75302300910000309200DD
:1004D0000B088B139517151400000000891B8B1750
:1004E00013087F390319B32A2000E0002300110804
:1004F0002000E100230012082000E2006008111E25
:100500007F2A23009A002000610823009100200028
:100510006208230092000B088B1395171514000036
:100520000000891B8B17130D140D7F390319B32A93
:100530002000E000230011082000E1002300120841
:100540002000E2006008111EA32A23009A00200068
:100550006108230091002000620823009200910AA4
:100560000319920A682A0D302000111EB52A2300B3
:100570009A000A302000111EBB2A23009A00592B32
:10058000200033085E02031DD02A7D302300910035
:1005900000309200200000222300592B592B20000C
:1005A0000130E00050225E08B3005E0BF02A883074
:1005B00023009100003092002000002221000C1244
:1005C00022000C1202302000E000FA30E900A620E0
:1005D000E00BE52A21008C1222008C16072B20004C
:1005E0008F30230091000030920020000022210073
:1005F0008C1222008C1202302000E000FA30E90058
:10060000A620E00BFE2A21000C1222000C165F30FF
:100610002000111E092B23009A000D302000111E0E
:100620000F2B23009A000A302000111E152B2300E7
:100630009A0004302000E000FA30E900A620E00B28
:100640001C2B21000C1520000C1D412B2F30111EDE
:10065000272B23009A000D302000111E2D2B230084
:100660009A000A302000111E332B23009A00043018
:100670002000E000FA30E900A620E00B3A2B5F14DE
:10068000212B5F18452B2200072B7C30111E462B97
:1006900023009A000D302000111E4C2B23009A00DD
:1006A0000A302000111E522B23009A0020005F10F8
:1006B000230020000800370836020319EC2B370806
:1006C0003606DE00973023009100003092000310C0
:1006D00005302000DF00AA215E08DF001B30E000AB
:1006E0006C210D30111E722B23009A000A3020005D
:1006F000111E782B23009A0020003608B700360818
:10070000073C0318CF2B0B30DE000130DF00E30184
:10071000E201E1013608E000E401E4015F0864025F
:100720000318A42B4530640784002030850003188B
:10073000850A600880006108E0006208E100630843
:10074000E200E301E40A8E2BDF080319CF2B5E08D9
:10075000DE0AE900DF0345305F07840020308500B2
:100760000318850A0008EA000B08A0008B1369082B
:100770002300910020006A082300930095131515AB
:1007800055309600AA30960095149518C52B151172
:10079000200020088B040130E900A620A42B360895
:1007A000073C031DD82BDE015D22E0015022E82B1F
:1007B0003608063C031DE22BDE015D220130E0001D
:1007C0005022E82B0130DE005D220130E000502293
:1007D000361CEC2BE00150228031322D6A30210092
:1007E000990022001D159D1723009F1119309B00B1
:1007F000A6309E0090309D001E302000AC00AD0160
:10080000AE01AF01B0013110B1103111B1110130A1
:10081000B200B3014430B400B5010730B600B701EF
:10082000B80123008C018E012200920191019401F4
:100830009301442C0C3400343B34653472347234EC
:100840005F346D34653473347334613467346534C4
:1008500000340234003439341B3420340D34003475
:1008600049346534723472345F346D346F347634A5
:1008700065346D3465346E347434003402340034BD
:100880004734293420340034043085001A30840081
:10089000851712002000A000003A0319612C1200F5
:1008A000A100A11B572C0F39870012008600211BC5
:1008B0001200211F12001E00A00B592C2200492CEF
:1008C0002000D601D701D801D901DA01DB012100CE
:1008D0001E129E161E139E131D140B138B138B1BBF
:1008E0006E2C911622009D11353020009800990140
:1008F0002100111420009601970196010A30AD00E5
:10090000C0308B041430A10021001D088339200061
:10091000210421009D00FF302000DD00DC002100CB
:100920000E1222000E1221008E1222008E122100C1
:100930008C1222008C1221008E12203022008E0692
:1009400002302000DE00FA30E900A620DE0BA32CE6
:1009500021008E12203022008E0602302000DE00A0
:10096000FA30E900A620DE0BB02C21000C12220088
:100970000C1621008E12203022008E06023020003C
:10098000DE00FA30E900A620DE0BC12C21008E1219
:10099000203022008E0602302000DE00FA30E9000E
:1009A000A620DE0BCE2CB11C322DB1102030DF0082
:1009B0003C30DE00BC285D08DF005C08DE00032957
:1009C0002108D8002E292108D90059085807B60057
:1009D0005D08DF001B30E0006C212C30111EEE2C76
:1009E00023009A0020302000111EF42C23009A00CE
:1009F00020005C08DF001B30E0006C212C30111E51
:100A0000FF2C23009A0020302000111E052D23000A
:100A10009A0020003408111E0B2D23009A003A3052
:100A20002000111E112D23009A0020302000111EDD
:100A3000172D23009A0020003608DF001B30E0004D
:100A40006C21A33023009100003092000310043089
:100A50002000DF00AA2121000E12103022008E0695
:080A600020005B2BD32C630086
:020000040001F9
:06E02600000000000000F4
:04000E008439FF1E14
:00000001FF
;PIC16F1823
;CRC=9E2C  CREATED="29-out-20 17:08"
