:060000008031412B0000DD
:08000800830180312000200873
:10001000A4002108A5002208A6002308A7002300A9
:1000200011082000A800230012082000A9002300C6
:1000300013082000AA00230014082000AB0085014B
:1000400091308400001C2628111845288501913024
:100050008400801E2D28911A65282408A0002508F8
:10006000A1002608A2002708A30028082300910069
:10007000200029082300920020002A082300930072
:1000800020002B08230094000900AD0B4B28AE0A7A
:100090000230AD0031142E08053C031D5228AE017C
:1000A000AF0AB1142F083C3C031D5928AF01B00A18
:1000B000311530083C3C0319B0019601CF30970050
:1000C0002C309600111080312D28911E65282300B8
:1000D00019082000B400911280312D286539F22FC3
:1000E000ED32F339E133650500006539F22FED3764
:1000F000F632ED326E3A0A00A53A2C10A53A2C10D1
:10010000A5313A10A53A3B100D05001820308500A6
:1001100049308400000803199B280130A100A00188
:10012000A00B9028A10B8F284A30A000A00B962886
:100130009928800B8D2808005E0884005F088500E0
:10014000013FA300003FE0002308E100B2080319CB
:10015000C128B20121009D149D18AC281C08200064
:10016000E1000630A000A00BB32800001030A10071
:1001700021001D0883392000210421009D00D8287A
:1001800020000130B20021009D149D18C5281C08D4
:100190002000E0000630A000A00BCC2800001430A6
:1001A000A10021001D0883392000210421009D00A9
:1001B00020005E0884005F088500600880006108F8
:1001C000813F80312E2CE0015E08DB3C0318EE28D5
:1001D0005F08593C0318EE280330E0005E08DB3C62
:1001E000031CF8285F08593C0318F8280230E00087
:1001F0005E08DB3C031802295F08593C031C0229F6
:100200000130E0005E08DB3C031C0A295F08593C12
:100210000318E0016008A1008031332C3408B500D8
:100220003408423C031D1B2921008E1222008E1629
:100230002000DE0127293408443C031D2729210022
:100240008E1222008E122000B8010430DE00210040
:100250000E12103022008E0620005E08A1008031B0
:10026000362C6108A1016002031839296008A0003A
:100270004529A0010830E200E00DA00D6108200230
:100280000318A000A10DE20B3C29080021085E081C
:10029000E0006430E10031212008DE002108303028
:1002A000031D5929DF1C6329DF1963295F1A2030D8
:1002B0005C29DF115F125F14A1072108111E5E295E
:1002C00023009A0020005E08E0000A30E10031219E
:1002D0002008DE0021083030031D7429DF197B2936
:1002E0005F1C7B295F1A2030A1072108111E762987
:1002F00023009A0020003030DE075E08111E7E29A0
:1003000023009A00200008000B088B132300951788
:10031000151400000000891B8B170318B829130857
:100320007F392000DF00230011082000E0002300B7
:1003300012082000E1005F08111E9C2923009A008A
:100340002000600823009100200061082300920033
:100350000B088B139517151400000000891B8B17D1
:100360002000DE0BB429B6292300B829D92923009F
:10037000130D140D7F392000DF0023001108200029
:10038000E000230012082000E1005F08111EC629CA
:1003900023009A00200060082300910020006108DB
:1003A00023009200910A0319920A03102000DE0B29
:1003B000842980317E2CE008031DE22922008E1161
:1003C000E429200022008E1521008E112000080053
:1003D0005F1021000C1520000C1D4C2A75302300E5
:1003E0009100003092000B088B1395171514000034
:1003F0000000891B8B1713087F3903193E2A200040
:10040000E000230011082000E10023001208200072
:10041000E2006008111E0A2A23009A0020006108E9
:100420002300910020006208230092000B088B1328
:100430009517151400000000891B8B17130D140D60
:100440007F3903193E2A2000E00023001108200014
:10045000E100230012082000E2006008111E2E2A8D
:1004600023009A0020006108230091002000620808
:1004700023009200910A0319920AF3290D302000FB
:10048000111E402A23009A000A302000111E462A1D
:1004900023009A00CA2A200033085E02031D542A52
:1004A0002300CA2ACA2A20000130E000DB215E08AE
:1004B000B3005E0B6D2A21000C1222000C120230D8
:1004C0002000E000FA30E9008620E00B622A2100DB
:1004D0008C1222008C167D2A200021008C12220012
:1004E0008C1202302000E000FA30E9008620E00B98
:1004F000742A21000C1222000C165F302000111EFD
:100500007F2A23009A000A302000111E852A23002A
:100510009A0004302000E000FA30E9008620E00B69
:100520008C2A5F30111E922A23009A000A30200084
:10053000111E982A23009A0021000C1520000C1D82
:10054000B82A2F30111EA22A23009A000A30200058
:10055000111EA82A23009A0004302000E000FA307F
:10056000E9008620E00BAF2A5F1423009C2A2000BC
:100570005F18BC2A22007D2A7C30111EBD2A230070
:100580009A000A302000111EC32A23009A0020007E
:100590005F102300200008003708360203193F2BA4
:1005A0003608B7003608073C0318222B0B30DE0054
:1005B0000130DF00E301E201E1013608E000E4017F
:1005C000E4015F0864020318F72A453064078400D9
:1005D000203085000318850A600880006108E0006B
:1005E0006208E1006308E200E301E40AE12ADF08AF
:1005F0000319222B5E08DE0AE900DF0345305F079E
:100600008400203085000318850A0008EA000B08E2
:10061000A0008B1369082300910020006A082300C2
:1006200093009513151555309600AA309600951431
:100630009518182B1511200020088B040130E900B3
:100640008620F72A3608073C031D2B2BDE01E82104
:10065000E001DB213B2B3608063C031D352BDE0178
:10066000E8210130E000DB213B2B0130DE00E821F6
:100670000130E000DB21361C3F2BE001DB21803123
:10068000852C6A302100990022001D159D1723003A
:100690009F1119309B00A6309E0090309D001E30A7
:1006A0002000AC00AD01AE01AF01B0013110B110BE
:1006B0003111B1110130B200B3014430B400B501C1
:1006C0000730B600B701B80123008C018E0122006B
:1006D0009201910194019301972B0C3400343B3427
:1006E0006534723472345F346D346534733473340A
:1006F00061346734653400340234003439341B34D7
:1007000020340D34003449346534723472345F342B
:100710006D346F34763465346D3465346E347434CE
:100720000034023400344734293420340034033098
:1007300085006D308400851712002000A000003A6B
:100740000319B42B1200A100A11BAA2B0F3987009B
:1007500012008600211B1200211F12001E00A00B98
:10076000AC2B22009C2B2000D601D701D801D90147
:10077000DA01DB0121001E129E161E139E131D14AA
:100780000B138B138B1BC12B911622009D1135303F
:100790002000980099012100111420009601970172
:1007A00096010230AD00C0308B041430A10021004E
:1007B0001D0883392000210421009D00FF30200006
:1007C000DD00DC0021000E1222000E1221008E122C
:1007D00022008E1221008C1222008C1221008E1217
:1007E000203022008E0602302000DE00FA30E900C0
:1007F0008620DE0BF62B21008E12203022008E0682
:1008000002302000DE00FA30E9008620DE0B032CE7
:1008100021000C1222000C1621008E122030220022
:100820008E0602302000DE00FA30E9008620DE0B62
:10083000142C21008E12203022008E06023020005F
:10084000DE00FA30E9008620DE0B212CB11C852C5D
:10085000B1102030DF003C30DE009C285D08DF0056
:100860005C08DE00E3282108D8000E292108D90001
:1008700059085807B6005D08DE001B30DF0046212E
:100880002C30111E412C23009A0020302000111E14
:10089000472C23009A0020005C08DE001B30DF009C
:1008A00046212C30111E522C23009A0020302000AB
:1008B000111E582C23009A0020003408111E5E2CB3
:1008C00023009A003A302000111E642C23009A0065
:1008D00020302000111E6A2C23009A0020003608C8
:1008E000DE001B30DF004621833023009100003002
:1008F0009200031004302000DE00842921000E1233
:0E090000103022008E062000CC2A262C630028
:020000040001F9
:06E02600000000000000F4
:04000E008439FF1E14
:00000001FF
;PIC16F1823
;CRC=9D8C  CREATED="28-out-20 13:48"
