:06000000803161280000C0
:08000800830180312000200873
:10001000A4002108A5002208A6002308A7000B1EA3
:1000200013288B183C28850191308400001C1A2865
:10003000111823282408A0002508A1002608A200E2
:100040002708A30009009601CF3097002C309600B6
:10005000B20B2E28B30A0230B200351433083C3CF0
:10006000031D3528B301B40AB51434083C3C031908
:10007000B401111080311A28B5158B1080311A285F
:1000800022008C1E482821008C1222008C125E282F
:100090002000B608031D50283908B6000A30B70002
:1000A000B70803195728B70322005E282000210053
:1000B0008C1222008C162000B60322008031200012
:1000C000A9286A30210099001A0822000014200093
:1000D000AB01AA01A901A801AF01AE01AD01AC01BC
:1000E000B101B001B201B301B4013510B510351141
:1000F000B5113512B5123513B513B601B70123008A
:100100008C018E01220092019101940193010B1345
:100110008B138B1B88289D11353020009800990186
:100120002100111420009601970196010230B200BF
:10013000C0308B04B801B519B511FF3021008E0015
:1001400020000E08B800351CA92835103808B90061
:0601500040289B2863001B
:020000040001F9
:10E000000000000000000000000000000000000010
:04E01000000000000C
:02E00C00000012
:04000E008439FF1E14
:00000001FF
;PIC16F1823
;CRC=99A4  CREATED="26-ago-20 16:41"
