:060000008031ED2C000030
:08000800830180312000200873
:10001000A4002108A5002208A6002308A7000B1EA3
:1000200013288B184328850191308400001C1A285E
:10003000111823282408A0002508A1002608A200E2
:100040002708A3000900B20B2928B30A0230B20026
:1000500036143308053C031D3028B301B40AB61426
:1000600034083C3C031D3728B401B50A3615350861
:100070003C3C0319B5019601CF3097002C30960017
:10008000111080311A2836168B1080311A28203032
:1000900085003B308400000803195C280130A10072
:1000A000A001A00B5128A10B50284A30A000A00BA2
:1000B00057285A28800B4E28080021002A08083C9F
:1000C00003196628AB00A90DAB0B63288E140E1123
:1000D0000E1022000E1021002A08AB00A91B732865
:1000E00022000E112100A91F782822000E152100E0
:1000F000A90D22000E142000A10D8E1C21108E18B7
:10010000211422000E102100AB0B6E2820000800E5
:1001100021008E1122008E1103302100A900083029
:10012000AA0020005D206A082100A9000830AA006A
:1001300020005D202100A9010830AA0020005D20D8
:100140002108EB0021008E1122008E1520006B0883
:10015000A100080021080319B12820081A00A10BEA
:10016000AD28080021008E1122008E1102302100DE
:10017000A9000830AA0020005D2021002708A9005E
:100180000830AA0020005D2021002808A9000830BE
:10019000AA0020005D2021008E1122008E15200073
:1001A00008000F30EA0088202108D900203085009F
:1001B000373084002108A0000130A100AA20560E8B
:1001C0007039A000A0351F3057052004D700D7157F
:1001D0000F302100A700200057082100A8002000B0
:1001E000B2200E30EA0088202108D9002030850096
:1001F000383084002108A0000130A100AA2058084E
:10020000A000A00E203607395602031DF128080071
:1002100020302100A5005330A4002000EF0803196E
:100220008D29210025082000A30021002408840036
:100230002000230885006B08800021002408031992
:10024000A503A40325082000A3002100240884009E
:100250002000230885006C08800021002408031971
:10026000A503A40325082000A3002100240884007E
:100270002000230885006D0803398000210025082F
:100280002000A3002100240884002000230885000A
:100290006D08A000A00DA00DA00DF830A00520084D
:1002A000E03900048000210025082000A30021007F
:1002B00024088400200023088500000808388000F6
:1002C000210024080319A503A40325082000A30086
:1002D0002100240884002000230885006D08A00068
:1002E000A00EA00C0730A0052008073980002100CF
:1002F00025082000A30021002408840020002308F2
:1003000085006E08A000A00DA00DA00DF830A0057E
:100310002008F83900048000EA292100250820007F
:10032000A300210024088400200023088500800108
:10033000210024080319A503A40325082000A30015
:10034000210024088400200023088500800121006A
:1003500024080319A503A40325082000A3002100F5
:10036000240884002000230885006B08A000A00E4C
:10037000A00DE030A0052008E0398000210024080D
:100380000319A503A40325082000A30021002408C5
:1003900084002000230885006B08A000A00CA00C9E
:1003A000A00C1F30A00520081F398000210025085F
:1003B0002000A300210024088400200023088500D9
:1003C0006C08A000A00EA00DE030A0052008E039C8
:1003D000000480006A08EA032100A600A7002308A1
:1003E000A8002000B2206A08EA032100A600A700A6
:1003F0002208A8002000B2206A08EA032100A60013
:10040000A7002108A8002000B2206A082100A70048
:100410002008A8002000B220080021008E11220030
:100420008E1521008E1022008E1021000E10220049
:100430000E1021000E15C0302000D60021008E11B4
:1004400022008E11200056082100A9000830AA00C1
:1004500020005D2021008E1122008E151430200016
:10046000DB0047200430D600D12039083F39A000F6
:10047000C03056052004D6003F305605D6003B0854
:100480000739A000F83057052004D7003A0807398B
:10049000A000A035A00DA00DC73057052004D7003F
:1004A0005713D7173C080739A000F8305805200427
:1004B000D8005813D8132A302100A700200056086E
:1004C0002100A8002000B22029302100A700200030
:1004D00057082100A8002000B22028302100A700E2
:1004E000200058082100A8002000B22020308500FC
:1004F00035308400A0010130A100AA209F305505AD
:10050000D500551560302100A700200055082100B6
:10051000A8002000B22070302100A700200055085C
:100520002100A8002000B2202330EA00EE01ED01F6
:10053000EC01EB01EF0108210330EA00EE01ED01CF
:10054000EC01EB01EF0108210730EA00EE01ED01BB
:10055000EC01EB01EF0108212730EA00EE01ED018B
:10056000EC01EB01EF0108210B30EA00EE01ED0197
:10057000EC01EB01EF0108211330EA00EE01ED017F
:10058000EC01EB01EF0108211730EA00EE01ED016B
:10059000EC01EB01EF0108211B30EA00EE01ED0157
:1005A000EC01EB01EF010821D601D1200430D60087
:1005B000D1208030D5002B302100A7002000550825
:1005C0002100A8002000B220D601D1208031782D52
:1005D000D7012C30EA0088202108D500D50803195E
:1005E000FF2A0130D600D6080319FF2A5508560500
:1005F0000319FC2A5608D7000310D60DF32A570812
:10060000013A0319192B033A03191A2B063A031955
:100610001B2B0C3A03191C2B183A03191D2B303ACB
:1006200003191E2B603A03191F2BC03A0319202B04
:100630004B2B4B2B4B2B4B2B4B2B4B2B4B2B4B2B0A
:100640002C30D8005708D900DA0121008E11220081
:100650008E1105302100A9000830AA0020005D207D
:1006600058082100A9000830AA0020005D20590880
:100670002100A9000830AA0020005D205A082100AE
:10068000A9000830AA0020005D2021008E11220060
:100690008E1520004B2B5708FF3AD5055508A100B1
:1006A0008031932D5A080739A0005A0CA100A10CE3
:1006B000A10C1F30A10521085C07840000305D3DBE
:1006C0008500A101A10AA00A662BA10DA00B652B34
:1006D000DB0803196E2B21088004712BA109210866
:1006E00080050800D901D901550859020318A62B25
:1006F0005808DA000130DB00DD00DC015223580825
:10070000DA00DB01DD018030DC0052231430DB0035
:1007100047205808DA00DB010130DD00DC015223FC
:100720005808DA00DB01DD018030DC005223570875
:10073000DA00DA0ADA030319A12BFF30DB004720C5
:100740009A2B5608DB004720D90A742B80319D2D47
:100750005608A3005508DE002308DF002030E10022
:100760003730E0000730A1005F0885005E08840094
:100770000008A0006108850060088400200880004F
:10078000E00A0319E10ADE0A0319DF0AA10BB42B00
:100790005C08A3005B088400230885000008DE00D5
:1007A000A0005D08A1000319D82BA036A10BD52B02
:1007B000201CED2B5C08A3005B0884005C0885000E
:1007C0000130A0005D08A1000319E92BA035A10BA1
:1007D000E62B2008FF3A80051F2CD808031DFB2BB1
:1007E00038081E3C031D1F2C5708D8000310570D56
:1007F0003802DA000D2C5C08A3005B0884005C085A
:1008000085000130A0005D08A10003190A2CA03565
:10081000A10B072C20088004D80355088400560833
:100820008500570880005808813F5908823F5A08C0
:10083000833F5B08843F5C08853F5D08863F8031CD
:10084000A52D3030EA0088202108EA0020308500FC
:10085000473084002108A0000130A100AA204030C8
:10086000EA0088202108EA00203085004830840012
:100870002108A0000130A100AA205030EA00882001
:100880002108EA0020308500493084002108A000BA
:100890000130A100AA20E719572C3630E100303092
:1008A000E2003430E3003530E400E001742CE81954
:1008B000642C4630E1004030E2004430E300453033
:1008C000E4000130E000742CE919712C5630E1008D
:1008D0005030E2005430E3005530E4000230E000D4
:1008E000742C0030A100EB2C6208EA00882021085B
:1008F000EA0020308500453084002108A000013046
:10090000A100AA205C080339A000FC306505200482
:10091000E50062082100A700200065082100A8006A
:100920002000B2206308EA005808EE005708ED00E6
:100930005608EC005508EB005D08EF000821203058
:100940008500463084005B08A0000130A100AA2089
:1009500066135E18661764082100A7002000660869
:100960002100A8002000B2206108DF005B086107B9
:100970005F020318D12C5A08A300590884005A08B2
:1009800085000008EA005F082100A70020006A082F
:100990002100A8002000B220D90A0319DA0ADF0AD0
:1009A000B62C6208EA0088202108EA002030850081
:1009B000453084002108A0000130A100AA20E515DF
:1009C00062082100A700200065082100A80020007F
:1009D000B2200130A1008031BC2D6A302100990085
:1009E0002000AB01AA01A901A801AF01AE01AD0130
:1009F000AC01B101B001B201B301B401B5013610CF
:100A0000B6103611B6113612B6123613B6133710A9
:100A10001E30B800B9010130BA00BB000230BC0082
:100A200021008E140E110E1022000E1023008C01D6
:100A30008E0122009201910194019301AA302000BD
:100A4000BD00BB30BE00BF01C001C101C201C30176
:100A5000C401C501C6010C306500023067002100E9
:100A60008C0122008C0121008E0122008E012000C9
:100A7000C700C8010A30C900CA010130CC000C30DF
:100A8000CB000430CD000230CE00CF010A30D000C0
:100A9000D1010130D3000E30D2000530D400210046
:100AA0000C1222000C1221008E1222008E12210044
:100AB0000C1222000C16C8302000DB004720210059
:100AC0000C1222000C12C8302000DB00472021004D
:100AD0000C1222000C16C8302000DB004720210039
:100AE0000C1222000C12C8302000DB0047200D2A17
:100AF0000B138B138B1B792D0B1621001513220062
:100B00009D1135302000980099012100111420001A
:100B10009601970196010230B200C0308B04361E58
:100B20009D2D3612E82A2108C6000230D500D701D3
:100B30004630D6007530D800722B361CA92D3610E1
:100B40002030D6002730D500A82BB80BA92D1E3099
:100B5000B800B61CC12DB610D801D7010730D60099
:100B60001F30D5002030DA001D30D9000230DB0004
:100B7000DC01DD01DE01212CC50A4508053C031C12
:0A0B8000C5018F2D361936116300F0
:020000040001F9
:10E000005300570035002E00330034003300350034
:02E0100000000E
:10E010000000000000000B0000000D0000000000E8
:06E02000000011001200D7
:04000E008439FF1E14
:00000001FF
;PIC16F1823
;CRC=A050  CREATED="17-set-20 13:44"
