:0600000080315A280000C7
:08000800830180312000200873
:10001000A4002108A5002208A6002308A700850146
:1000200091308400001C162811181F282408A000F5
:100030002508A1002608A2002708A3000900A80B94
:100040002528A90A0230A8002C142908053C031D04
:100050002C28A901AA0AAC142A083C3C031D332809
:10006000AA01AB0A2C152B083C3C0319AB019601E5
:10007000CF3097002C3096001110803116282A08B6
:10008000B000B10121008C1222008C122000310836
:10009000043C031C532830082A02031952282A085A
:1000A000B000B10A472821008C1222008C16803142
:1000B0002000B9286A30210099002000A801A90178
:1000C000AA01AB012C10AC102C11AC1123008C0137
:1000D00022009201910120002D10AD140B138B13FF
:1000E0008B1B6F282100911622009D1135302000B6
:1000F00098009901210011142000960197019601A2
:100100000230A800C0308B0421008C1222008C1613
:1001100021000C1520000C1D982821008C152000B2
:100120008C19982821000C1222000C1620002D1486
:1001300021000C1520000C19A82821008C15200086
:100140008C1DA82821000C1222000C1220002D105A
:10015000A001AD1820142D08200601390319B92873
:10016000AD102D18AD1400302D180130AE00AF00C9
:100170003F28AC1CC228AC1021000C10013022001A
:0A0180008C0620002200882863008E
:020000040001F9
:04000E008439FF1E14
:00000001FF
;PIC12F1822
;CRC=C91E  CREATED="27-out-20 16:53"
