:06000000803159280000C8
:08000800830180312000200873
:10001000A4002108A5002208A6002308A700850146
:1000200091308400001C162811181F282408A000F5
:100030002508A1002608A2002708A3000900A80B94
:100040002528A90A0230A8002C142908053C031D04
:100050002C28A901AA0AAC142A083C3C031D332809
:10006000AA01AB0A2C152B083C3C0319AB019601E5
:10007000CF3097002C3096001110803116282A08B6
:10008000AE00AF012F08043C031C53282E082A029F
:1000900003194D282A08AE00AF0A21008C12220055
:1000A0008C162000422821008C1222008C12200085
:1000B00008006A30210099002000A801A901AA01C6
:1000C000AB012C10AC102C11AC1123008C012200C0
:1000D0009201910120002D100B138B138B1B6D28A7
:1000E0002100911622009D113530200098009901C1
:1000F0002100111420009601970196010230A800FA
:10010000C0308B0421008C1222008C1221000C12B2
:1001100022000C1220002D189E2821000C15200012
:100120000C1D9E2821008C1520008C199E28210072
:100130000C1222000C1620003F202D142D1CB1287B
:1001400021000C1520000C19B12821008C1520006D
:100150008C1DB12821000C1222000C1220003F201F
:100160002D10AC1CBA28AC1021000C10013022005C
:080170008C0620008B286300BF
:020000040001F9
:04000E008439FF1E14
:00000001FF
;PIC12F1822
;CRC=C278  CREATED="16-out-20 23:23"
