:0600000080314F280000D2
:08000800830180312000200873
:10001000A4002108A5002208A6002308A700850146
:1000200091308400001C1628111826288501913073
:100030008400801E1D28911A46282408A000250847
:10004000A1002608A2002708A3000900A80B2C285D
:10005000A90A0230A8002C142908053C031D3328E6
:10006000A901AA0AAC142A083C3C031D3A28AA019B
:10007000AB0A2C152B083C3C0319AB019601CF3081
:1000800097002C309600111080311D28911E4628B3
:10009000230019082000AD00911280311D286A301C
:1000A0002100990023009F1119309B00A6309E006B
:1000B00090309D002000A801A901AA01AB012C10DD
:1000C000AC102C11AC114430AD00AE0123008C01FA
:1000D0002200920191010B138B138B1B6C282100C2
:1000E000911622009D1135302000980099012100C1
:1000F000111420009601970196010230A800C0302B
:100100008B04AC1C9728AC102D08443C031D8E2892
:1001100021000C1222000C16962820002D08423CCB
:10012000031D972821000C1222000C1220008128A8
:0201300063006A
:020000040001F9
:04000E008439FF1E14
:00000001FF
;PIC12F1822
;CRC=7FE8  CREATED="03-nov-20 15:55"
