:04000000A6EF02F075
:08000800046ED8CF05F0E0CF33
:1000100006F00001E9CF0CF0EACF07F0E1CF08F0DD
:10002000E2CF09F0D9CF0AF0DACF0BF0F3CF12F01C
:10003000F4CF13F0FACF14F000C00EF001C00FF0AF
:1000400002C010F003C011F0F2AA2AEF00F0F2B4DF
:1000500063EF00F0F2A830EF00F0F2B282EF00F0B0
:10006000F0A636EF00F0F0B08AEF00F0F0A83CEF19
:1000700000F0F0B293EF00F00EC000F00FC001F0FE
:1000800010C002F011C003F00CC0E9FF07C0EAFF86
:10009000078E08C0E1FF09C0E2FF0AC0D9FF0BC00C
:1000A000DAFF12C0F3FF13C0F4FF14C0FAFF0450CC
:1000B00006C0E0FF05C0D8FF10000C5265616479EE
:1000C0002E2E2E0A000019C0D7FF18C0D6FF1A2AFC
:1000D0001A50640803E11B2A1A6A1F801B500A0881
:1000E00003E11B6A1C2A1F821C503C0803E11C6AA6
:1000F0001D2A1F841D503C0802E11D6A1E2AF2942D
:100100003CEF00F093968A76182AD8B4192AF29216
:100110003CEF00F093988A781850D8B41906180666
:10012000F0903CEF00F0939A8A7A1E6A1D6A1C6A6E
:100130001B6AF0923CEF00F03A003A003A000C5291
:10014000656164792E2E2E0A0000202020202020B8
:100150002020202020200000EA6A2D0EE96EEF50BA
:100160000DE0020E016E006A002EFED7012EFBD7B5
:10017000970E006E002EFED7EF2EF3D7120041B07F
:1001800002D08C9801D08C88959841B202D08C9A7C
:1001900001D08C8A959A41B402D08C9C01D08C8C71
:1001A000959C41B602D08C9E01D08C8E959E00000D
:1001B0008D82969200D000D08D92969212009692E7
:1001C000969496908D9496943E5202E18D9401D02F
:1001D0008D84969400008D90969000008D9296925A
:1001E0003F38406E0F0E401640C041F0C8DF3F5010
:1001F0000F0B406E416EC3DF1200280E296E0C0EED
:100200002A6E010E2B6E060E2C6E8D9296928D9498
:1002100096948D9096909598959A959C959E969289
:10022000969496900F0E2D6E97DF010E286E285033
:10023000030808E3030E416EA2DF050E2D6E8CDF6E
:10024000282AF5D7020E416E9ADF050E2D6E84DF47
:10025000286A285003080FE3036A2850290FE96E23
:10026000000E0320EA6EEFCF2DF03E6A2DC03FF066
:10027000A6DF282AEED7166A176ADAEF02F03B5299
:1002800003E0400E3C6E01D03C6A3A503C263C50A4
:1002900080093D6E3E6A3F6E92DF3AC016F03BC069
:1002A00017F012002A50070A09E00B0A0BE0010AB6
:1002B00013E0070A19E0020A26E02AD03A6A3B6AEC
:1002C000DEDF36D03E6A010E3F6E79DF020E2D6E04
:1002D00043DF166A176A2CD017C02BF02B1E3A6A20
:1002E0002BC03BF0CCDF24D01650162A0F0806E3B3
:1002F000010E3E6E200E3F6E62DFF6D73A6A17C0DF
:100300003BF0BDDF15D03E6A100E3F6E58DF10D0B7
:1003100016500F0802E3162A06D0166A171E3A6A0C
:1003200017C03BF0ACDF010E3E6E2AC03FF047DF46
:10033000A4EF01F00900F5520CE0F6CF28F0F7CF5A
:1003400029F0F5CF2AF0AED728C0F6FF29C0F7FF75
:10035000F1D71200D8B203D0EA6A4A0EE96E006AF9
:10036000016A026A036A4A6A4B6A4C6A4D6A4950DA
:100370004810471046102CE0200E4E6ED8904236A2
:100380004336443645364A364B364C364D36495060
:100390004D5C08E148504C5C05E147504B5C02E184
:1003A00046504A5C0FE346504A5E4750D8A0473C4F
:1003B0004B5E4850D8A0483C4C5E4950D8A0493CC0
:1003C0004D5ED88000360136023603364E2ED6D723
:1003D0004AC0EFFF4BC0ECFF4CC0ECFF4DC0ECFF40
:1003E00012002C6A2D6A2E6A2F6A306A316A326ACC
:1003F000336A346A356A396A386A376A366A2BC0B2
:1004000039F02AC038F029C037F028C036F02C6AFD
:10041000365206E1375204E1385202E139524EE0D9
:10042000036A2C502D0F016E000E032201C03AF01A
:1004300003C03BF0EACF3DF0E9CF3CF0D882EA6A56
:100440003E0EE96E39C045F038C044F037C043F085
:1004500036C042F0496A486A476A0A0E466E7ADF39
:100460003DC0EAFF3CC0E9FF3BC0EAFF3AC0E9FFFC
:100470003EC0EFFFD89239C045F038C044F037C0D5
:1004800043F036C042F0496A486A476A0A0E466E2F
:1004900061DF03C039F002C038F001C037F000C09E
:1004A00036F0036A2C502D0FE96E000E0320EA6E21
:1004B000300EEF24EF6E352A2C2AAAD735521CE0D5
:1004C00016500F0807E2166A171E16C03AF017C03A
:1004D0003BF0D5DE010E355E036A35502D0FE96E17
:1004E000000E0320EA6EEFCF3AF0010E3E6E3AC0E6
:1004F0003FF065DE162AE2D712002B6A2A6A296AC3
:100500001EC028F06EDF380EF66E010EF76E12DF99
:100510002B6A2A6A296A1DC028F063DF3A0EF66E3C
:10052000010EF76E07DF2B6A2A6A296A1CC028F0C1
:1005300058DF3C0EF66E010EF76EFCDE2B6A2A6A5F
:10054000296A1BC028F04DDFF3EF02F0F86AD09E55
:10055000078E166A176A196A0C0E186E0A0E1A6E42
:10056000090E1B6E1C6A1D6A1E6A1F901F921F9443
:100570001F96C150C00B0F09C16E070EB46E020E5C
:10058000216E226A0A0E236E246A010E266E0C0E5C
:10059000256E040E276EF29CF29EF2BEFDD7F08807
:1005A000C20ED56EF28A19C0D7FF18C0D6FFC00E92
:1005B000F21223D63E0EF66E010EF76EBBDE020E71
:1005C000286EFA0E2D6EC8DD282EFBD74A0EF66E69
:1005D000010EF76EAFDE206A1FA010D01F903A6A9E
:1005E0003B6A4DDE8AD73A6A010E3B6E48DE2B6AC3
:1005F0002A6A19C029F018C028F0F3DEEDD70300ED
:020000040030CA
:0E00000000C2180E008781000FC00FE00F40F5
:00000001FF
;PIC18F4520
;CRC=3D37  CREATED="23-set-20 16:14"
